{
	"data": {
		"bytecode": {
			"linkReferences": {},
			"object": "608060405234801561001057600080fd5b506113db806100206000396000f3fe608060405234801561001057600080fd5b50600436106100935760003560e01c806366361ae81161006657806366361ae81461014457806382afd23b14610174578063d3c2a592146101a4578063dcc70b9a146101c0578063e8ba6509146101de57610093565b80634129b2c91461009857806346e04a2f146100c8578063598647f8146100e45780635c622a0e14610114575b600080fd5b6100b260048036038101906100ad9190610fa9565b61020e565b6040516100bf9190611052565b60405180910390f35b6100e260048036038101906100dd9190610fa9565b61026f565b005b6100fe60048036038101906100f99190610fd6565b61044b565b60405161010b91906110cd565b60405180910390f35b61012e60048036038101906101299190610fa9565b610788565b60405161013b91906110e8565b60405180910390f35b61015e60048036038101906101599190610eef565b6107f5565b60405161016b9190611103565b60405180910390f35b61018e60048036038101906101899190610fa9565b610c63565b60405161019b91906110cd565b60405180910390f35b6101be60048036038101906101b99190610fa9565b610c9c565b005b6101c8610e17565b6040516101d59190611103565b60405180910390f35b6101f860048036038101906101f39190610fa9565b610e23565b60405161020591906110cd565b60405180910390f35b600061021982610e23565b61022257600080fd5b6000828154811061023657610235611318565b5b906000526020600020906009020160070160009054906101000a900473ffffffffffffffffffffffffffffffffffffffff169050919050565b61027881610e23565b61028157600080fd5b600080828154811061029657610295611318565b5b906000526020600020906009020190503373ffffffffffffffffffffffffffffffffffffffff168160030160009054906101000a900473ffffffffffffffffffffffffffffffffffffffff1673ffffffffffffffffffffffffffffffffffffffff161461030257600080fd5b60008160020160009054906101000a900473ffffffffffffffffffffffffffffffffffffffff1690508073ffffffffffffffffffffffffffffffffffffffff1663a9059cbb8360030160009054906101000a900473ffffffffffffffffffffffffffffffffffffffff1684600601546040518363ffffffff1660e01b815260040161038e9291906110a4565b602060405180830381600087803b1580156103a857600080fd5b505af11580156103bc573d6000803e3d6000fd5b505050506040513d601f19601f820116820180604052508101906103e09190610f7c565b6103e957600080fd5b7f35538759d80c1fd7bb450a0d05601db5a99fa8b5d073a07c847a9fd61029b107838360030160009054906101000a900473ffffffffffffffffffffffffffffffffffffffff1660405161043e92919061111e565b60405180910390a1505050565b6000806000848154811061046257610461611318565b5b90600052602060002090600902019050600073ffffffffffffffffffffffffffffffffffffffff168160030160009054906101000a900473ffffffffffffffffffffffffffffffffffffffff1673ffffffffffffffffffffffffffffffffffffffff1614156104d057600080fd5b6104d984610c63565b6104e257600080fd5b806006015483111561077c5760008160020160009054906101000a900473ffffffffffffffffffffffffffffffffffffffff1690508073ffffffffffffffffffffffffffffffffffffffff166323b872dd3330876040518463ffffffff1660e01b81526004016105549392919061106d565b602060405180830381600087803b15801561056e57600080fd5b505af1158015610582573d6000803e3d6000fd5b505050506040513d601f19601f820116820180604052508101906105a69190610f7c565b6105af57600080fd5b60008260060154141580156106155750600073ffffffffffffffffffffffffffffffffffffffff168260070160009054906101000a900473ffffffffffffffffffffffffffffffffffffffff1673ffffffffffffffffffffffffffffffffffffffff1614155b156106d1578073ffffffffffffffffffffffffffffffffffffffff1663a9059cbb8360070160009054906101000a900473ffffffffffffffffffffffffffffffffffffffff1684600601546040518363ffffffff1660e01b815260040161067d9291906110a4565b602060405180830381600087803b15801561069757600080fd5b505af11580156106ab573d6000803e3d6000fd5b505050506040513d601f19601f820116820180604052508101906106cf9190610f7c565b505b838260060181905550338260070160006101000a81548173ffffffffffffffffffffffffffffffffffffffff021916908373ffffffffffffffffffffffffffffffffffffffff1602179055506001826008015461072e91906111c3565b82600801819055507f558a0d5d5468d74b0db24c74eb348b42271c2ebb4c9e953ced38aaed95fa43618533866040516107699392919061118c565b60405180910390a1600192505050610782565b60009150505b92915050565b6000806000838154811061079f5761079e611318565b5b9060005260206000209060090201905080600401544210156107c55760009150506107f0565b806005015481600401546107d991906111c3565b4210156107ea5760019150506107f0565b60029150505b919050565b60006108168773ffffffffffffffffffffffffffffffffffffffff16610e5b565b61081f57600080fd5b60008790503373ffffffffffffffffffffffffffffffffffffffff168173ffffffffffffffffffffffffffffffffffffffff16636352211e896040518263ffffffff1660e01b81526004016108749190611103565b60206040518083038186803b15801561088c57600080fd5b505afa1580156108a0573d6000803e3d6000fd5b505050506040513d601f19601f820116820180604052508101906108c49190610ec2565b73ffffffffffffffffffffffffffffffffffffffff16146108e457600080fd5b3073ffffffffffffffffffffffffffffffffffffffff168173ffffffffffffffffffffffffffffffffffffffff1663081812fc896040518263ffffffff1660e01b81526004016109349190611103565b60206040518083038186803b15801561094c57600080fd5b505afa158015610960573d6000803e3d6000fd5b505050506040513d601f19601f820116820180604052508101906109849190610ec2565b73ffffffffffffffffffffffffffffffffffffffff16146109a457600080fd5b6109c38673ffffffffffffffffffffffffffffffffffffffff16610e5b565b6109cc57600080fd5b60008414156109d9574293505b60006040518061012001604052808a73ffffffffffffffffffffffffffffffffffffffff1681526020018981526020018873ffffffffffffffffffffffffffffffffffffffff1681526020013373ffffffffffffffffffffffffffffffffffffffff168152602001868152602001858152602001878152602001600073ffffffffffffffffffffffffffffffffffffffff16815260200160008152509050600081908060018154018082558091505060019003906000526020600020906009020160009091909190915060008201518160000160006101000a81548173ffffffffffffffffffffffffffffffffffffffff021916908373ffffffffffffffffffffffffffffffffffffffff1602179055506020820151816001015560408201518160020160006101000a81548173ffffffffffffffffffffffffffffffffffffffff021916908373ffffffffffffffffffffffffffffffffffffffff16021790555060608201518160030160006101000a81548173ffffffffffffffffffffffffffffffffffffffff021916908373ffffffffffffffffffffffffffffffffffffffff1602179055506080820151816004015560a0820151816005015560c0820151816006015560e08201518160070160006101000a81548173ffffffffffffffffffffffffffffffffffffffff021916908373ffffffffffffffffffffffffffffffffffffffff1602179055506101008201518160080155505060006001600080549050610c089190611219565b90507fa8beb8d94445fc53ec7453fd38a803325495d51028facf1562f5f8002d08124281836060015184600001518560400151604051610c4b9493929190611147565b60405180910390a18093505050509695505050505050565b600060016002811115610c7957610c786112e9565b5b610c8283610788565b6002811115610c9457610c936112e9565b5b149050919050565b610ca581610e23565b610cae57600080fd5b6000808281548110610cc357610cc2611318565b5b906000526020600020906009020190506000610cde8361020e565b90503373ffffffffffffffffffffffffffffffffffffffff168173ffffffffffffffffffffffffffffffffffffffff1614610d1857600080fd5b60008260000160009054906101000a900473ffffffffffffffffffffffffffffffffffffffff1690508073ffffffffffffffffffffffffffffffffffffffff166323b872dd8460030160009054906101000a900473ffffffffffffffffffffffffffffffffffffffff168486600101546040518463ffffffff1660e01b8152600401610da69392919061106d565b600060405180830381600087803b158015610dc057600080fd5b505af1158015610dd4573d6000803e3d6000fd5b505050507f35538759d80c1fd7bb450a0d05601db5a99fa8b5d073a07c847a9fd61029b1078483604051610e0992919061111e565b60405180910390a150505050565b60008080549050905090565b6000600280811115610e3857610e376112e9565b5b610e4183610788565b6002811115610e5357610e526112e9565b5b149050919050565b600080823b905060008111915050919050565b600081359050610e7d81611360565b92915050565b600081519050610e9281611360565b92915050565b600081519050610ea781611377565b92915050565b600081359050610ebc8161138e565b92915050565b600060208284031215610ed857610ed7611347565b5b6000610ee684828501610e83565b91505092915050565b60008060008060008060c08789031215610f0c57610f0b611347565b5b6000610f1a89828a01610e6e565b9650506020610f2b89828a01610ead565b9550506040610f3c89828a01610e6e565b9450506060610f4d89828a01610ead565b9350506080610f5e89828a01610ead565b92505060a0610f6f89828a01610ead565b9150509295509295509295565b600060208284031215610f9257610f91611347565b5b6000610fa084828501610e98565b91505092915050565b600060208284031215610fbf57610fbe611347565b5b6000610fcd84828501610ead565b91505092915050565b60008060408385031215610fed57610fec611347565b5b6000610ffb85828601610ead565b925050602061100c85828601610ead565b9150509250929050565b61101f8161124d565b82525050565b61102e8161125f565b82525050565b61103d816112a8565b82525050565b61104c8161129e565b82525050565b60006020820190506110676000830184611016565b92915050565b60006060820190506110826000830186611016565b61108f6020830185611016565b61109c6040830184611043565b949350505050565b60006040820190506110b96000830185611016565b6110c66020830184611043565b9392505050565b60006020820190506110e26000830184611025565b92915050565b60006020820190506110fd6000830184611034565b92915050565b60006020820190506111186000830184611043565b92915050565b60006040820190506111336000830185611043565b6111406020830184611016565b9392505050565b600060808201905061115c6000830187611043565b6111696020830186611016565b6111766040830185611016565b6111836060830184611016565b95945050505050565b60006060820190506111a16000830186611043565b6111ae6020830185611016565b6111bb6040830184611043565b949350505050565b60006111ce8261129e565b91506111d98361129e565b9250827fffffffffffffffffffffffffffffffffffffffffffffffffffffffffffffffff0382111561120e5761120d6112ba565b5b828201905092915050565b60006112248261129e565b915061122f8361129e565b925082821015611242576112416112ba565b5b828203905092915050565b60006112588261127e565b9050919050565b60008115159050919050565b60008190506112798261134c565b919050565b600073ffffffffffffffffffffffffffffffffffffffff82169050919050565b6000819050919050565b60006112b38261126b565b9050919050565b7f4e487b7100000000000000000000000000000000000000000000000000000000600052601160045260246000fd5b7f4e487b7100000000000000000000000000000000000000000000000000000000600052602160045260246000fd5b7f4e487b7100000000000000000000000000000000000000000000000000000000600052603260045260246000fd5b600080fd5b6003811061135d5761135c6112e9565b5b50565b6113698161124d565b811461137457600080fd5b50565b6113808161125f565b811461138b57600080fd5b50565b6113978161129e565b81146113a257600080fd5b5056fea2646970667358221220a6d2c3d1d851a328617622795beefd3c069305bc89b4574708ad5ac28261e10a64736f6c63430008070033",
			"opcodes": "PUSH1 0x80 PUSH1 0x40 MSTORE CALLVALUE DUP1 ISZERO PUSH2 0x10 JUMPI PUSH1 0x0 DUP1 REVERT JUMPDEST POP PUSH2 0x13DB DUP1 PUSH2 0x20 PUSH1 0x0 CODECOPY PUSH1 0x0 RETURN INVALID PUSH1 0x80 PUSH1 0x40 MSTORE CALLVALUE DUP1 ISZERO PUSH2 0x10 JUMPI PUSH1 0x0 DUP1 REVERT JUMPDEST POP PUSH1 0x4 CALLDATASIZE LT PUSH2 0x93 JUMPI PUSH1 0x0 CALLDATALOAD PUSH1 0xE0 SHR DUP1 PUSH4 0x66361AE8 GT PUSH2 0x66 JUMPI DUP1 PUSH4 0x66361AE8 EQ PUSH2 0x144 JUMPI DUP1 PUSH4 0x82AFD23B EQ PUSH2 0x174 JUMPI DUP1 PUSH4 0xD3C2A592 EQ PUSH2 0x1A4 JUMPI DUP1 PUSH4 0xDCC70B9A EQ PUSH2 0x1C0 JUMPI DUP1 PUSH4 0xE8BA6509 EQ PUSH2 0x1DE JUMPI PUSH2 0x93 JUMP JUMPDEST DUP1 PUSH4 0x4129B2C9 EQ PUSH2 0x98 JUMPI DUP1 PUSH4 0x46E04A2F EQ PUSH2 0xC8 JUMPI DUP1 PUSH4 0x598647F8 EQ PUSH2 0xE4 JUMPI DUP1 PUSH4 0x5C622A0E EQ PUSH2 0x114 JUMPI JUMPDEST PUSH1 0x0 DUP1 REVERT JUMPDEST PUSH2 0xB2 PUSH1 0x4 DUP1 CALLDATASIZE SUB DUP2 ADD SWAP1 PUSH2 0xAD SWAP2 SWAP1 PUSH2 0xFA9 JUMP JUMPDEST PUSH2 0x20E JUMP JUMPDEST PUSH1 0x40 MLOAD PUSH2 0xBF SWAP2 SWAP1 PUSH2 0x1052 JUMP JUMPDEST PUSH1 0x40 MLOAD DUP1 SWAP2 SUB SWAP1 RETURN JUMPDEST PUSH2 0xE2 PUSH1 0x4 DUP1 CALLDATASIZE SUB DUP2 ADD SWAP1 PUSH2 0xDD SWAP2 SWAP1 PUSH2 0xFA9 JUMP JUMPDEST PUSH2 0x26F JUMP JUMPDEST STOP JUMPDEST PUSH2 0xFE PUSH1 0x4 DUP1 CALLDATASIZE SUB DUP2 ADD SWAP1 PUSH2 0xF9 SWAP2 SWAP1 PUSH2 0xFD6 JUMP JUMPDEST PUSH2 0x44B JUMP JUMPDEST PUSH1 0x40 MLOAD PUSH2 0x10B SWAP2 SWAP1 PUSH2 0x10CD JUMP JUMPDEST PUSH1 0x40 MLOAD DUP1 SWAP2 SUB SWAP1 RETURN JUMPDEST PUSH2 0x12E PUSH1 0x4 DUP1 CALLDATASIZE SUB DUP2 ADD SWAP1 PUSH2 0x129 SWAP2 SWAP1 PUSH2 0xFA9 JUMP JUMPDEST PUSH2 0x788 JUMP JUMPDEST PUSH1 0x40 MLOAD PUSH2 0x13B SWAP2 SWAP1 PUSH2 0x10E8 JUMP JUMPDEST PUSH1 0x40 MLOAD DUP1 SWAP2 SUB SWAP1 RETURN JUMPDEST PUSH2 0x15E PUSH1 0x4 DUP1 CALLDATASIZE SUB DUP2 ADD SWAP1 PUSH2 0x159 SWAP2 SWAP1 PUSH2 0xEEF JUMP JUMPDEST PUSH2 0x7F5 JUMP JUMPDEST PUSH1 0x40 MLOAD PUSH2 0x16B SWAP2 SWAP1 PUSH2 0x1103 JUMP JUMPDEST PUSH1 0x40 MLOAD DUP1 SWAP2 SUB SWAP1 RETURN JUMPDEST PUSH2 0x18E PUSH1 0x4 DUP1 CALLDATASIZE SUB DUP2 ADD SWAP1 PUSH2 0x189 SWAP2 SWAP1 PUSH2 0xFA9 JUMP JUMPDEST PUSH2 0xC63 JUMP JUMPDEST PUSH1 0x40 MLOAD PUSH2 0x19B SWAP2 SWAP1 PUSH2 0x10CD JUMP JUMPDEST PUSH1 0x40 MLOAD DUP1 SWAP2 SUB SWAP1 RETURN JUMPDEST PUSH2 0x1BE PUSH1 0x4 DUP1 CALLDATASIZE SUB DUP2 ADD SWAP1 PUSH2 0x1B9 SWAP2 SWAP1 PUSH2 0xFA9 JUMP JUMPDEST PUSH2 0xC9C JUMP JUMPDEST STOP JUMPDEST PUSH2 0x1C8 PUSH2 0xE17 JUMP JUMPDEST PUSH1 0x40 MLOAD PUSH2 0x1D5 SWAP2 SWAP1 PUSH2 0x1103 JUMP JUMPDEST PUSH1 0x40 MLOAD DUP1 SWAP2 SUB SWAP1 RETURN JUMPDEST PUSH2 0x1F8 PUSH1 0x4 DUP1 CALLDATASIZE SUB DUP2 ADD SWAP1 PUSH2 0x1F3 SWAP2 SWAP1 PUSH2 0xFA9 JUMP JUMPDEST PUSH2 0xE23 JUMP JUMPDEST PUSH1 0x40 MLOAD PUSH2 0x205 SWAP2 SWAP1 PUSH2 0x10CD JUMP JUMPDEST PUSH1 0x40 MLOAD DUP1 SWAP2 SUB SWAP1 RETURN JUMPDEST PUSH1 0x0 PUSH2 0x219 DUP3 PUSH2 0xE23 JUMP JUMPDEST PUSH2 0x222 JUMPI PUSH1 0x0 DUP1 REVERT JUMPDEST PUSH1 0x0 DUP3 DUP2 SLOAD DUP2 LT PUSH2 0x236 JUMPI PUSH2 0x235 PUSH2 0x1318 JUMP JUMPDEST JUMPDEST SWAP1 PUSH1 0x0 MSTORE PUSH1 0x20 PUSH1 0x0 KECCAK256 SWAP1 PUSH1 0x9 MUL ADD PUSH1 0x7 ADD PUSH1 0x0 SWAP1 SLOAD SWAP1 PUSH2 0x100 EXP SWAP1 DIV PUSH20 0xFFFFFFFFFFFFFFFFFFFFFFFFFFFFFFFFFFFFFFFF AND SWAP1 POP SWAP2 SWAP1 POP JUMP JUMPDEST PUSH2 0x278 DUP2 PUSH2 0xE23 JUMP JUMPDEST PUSH2 0x281 JUMPI PUSH1 0x0 DUP1 REVERT JUMPDEST PUSH1 0x0 DUP1 DUP3 DUP2 SLOAD DUP2 LT PUSH2 0x296 JUMPI PUSH2 0x295 PUSH2 0x1318 JUMP JUMPDEST JUMPDEST SWAP1 PUSH1 0x0 MSTORE PUSH1 0x20 PUSH1 0x0 KECCAK256 SWAP1 PUSH1 0x9 MUL ADD SWAP1 POP CALLER PUSH20 0xFFFFFFFFFFFFFFFFFFFFFFFFFFFFFFFFFFFFFFFF AND DUP2 PUSH1 0x3 ADD PUSH1 0x0 SWAP1 SLOAD SWAP1 PUSH2 0x100 EXP SWAP1 DIV PUSH20 0xFFFFFFFFFFFFFFFFFFFFFFFFFFFFFFFFFFFFFFFF AND PUSH20 0xFFFFFFFFFFFFFFFFFFFFFFFFFFFFFFFFFFFFFFFF AND EQ PUSH2 0x302 JUMPI PUSH1 0x0 DUP1 REVERT JUMPDEST PUSH1 0x0 DUP2 PUSH1 0x2 ADD PUSH1 0x0 SWAP1 SLOAD SWAP1 PUSH2 0x100 EXP SWAP1 DIV PUSH20 0xFFFFFFFFFFFFFFFFFFFFFFFFFFFFFFFFFFFFFFFF AND SWAP1 POP DUP1 PUSH20 0xFFFFFFFFFFFFFFFFFFFFFFFFFFFFFFFFFFFFFFFF AND PUSH4 0xA9059CBB DUP4 PUSH1 0x3 ADD PUSH1 0x0 SWAP1 SLOAD SWAP1 PUSH2 0x100 EXP SWAP1 DIV PUSH20 0xFFFFFFFFFFFFFFFFFFFFFFFFFFFFFFFFFFFFFFFF AND DUP5 PUSH1 0x6 ADD SLOAD PUSH1 0x40 MLOAD DUP4 PUSH4 0xFFFFFFFF AND PUSH1 0xE0 SHL DUP2 MSTORE PUSH1 0x4 ADD PUSH2 0x38E SWAP3 SWAP2 SWAP1 PUSH2 0x10A4 JUMP JUMPDEST PUSH1 0x20 PUSH1 0x40 MLOAD DUP1 DUP4 SUB DUP2 PUSH1 0x0 DUP8 DUP1 EXTCODESIZE ISZERO DUP1 ISZERO PUSH2 0x3A8 JUMPI PUSH1 0x0 DUP1 REVERT JUMPDEST POP GAS CALL ISZERO DUP1 ISZERO PUSH2 0x3BC JUMPI RETURNDATASIZE PUSH1 0x0 DUP1 RETURNDATACOPY RETURNDATASIZE PUSH1 0x0 REVERT JUMPDEST POP POP POP POP PUSH1 0x40 MLOAD RETURNDATASIZE PUSH1 0x1F NOT PUSH1 0x1F DUP3 ADD AND DUP3 ADD DUP1 PUSH1 0x40 MSTORE POP DUP2 ADD SWAP1 PUSH2 0x3E0 SWAP2 SWAP1 PUSH2 0xF7C JUMP JUMPDEST PUSH2 0x3E9 JUMPI PUSH1 0x0 DUP1 REVERT JUMPDEST PUSH32 0x35538759D80C1FD7BB450A0D05601DB5A99FA8B5D073A07C847A9FD61029B107 DUP4 DUP4 PUSH1 0x3 ADD PUSH1 0x0 SWAP1 SLOAD SWAP1 PUSH2 0x100 EXP SWAP1 DIV PUSH20 0xFFFFFFFFFFFFFFFFFFFFFFFFFFFFFFFFFFFFFFFF AND PUSH1 0x40 MLOAD PUSH2 0x43E SWAP3 SWAP2 SWAP1 PUSH2 0x111E JUMP JUMPDEST PUSH1 0x40 MLOAD DUP1 SWAP2 SUB SWAP1 LOG1 POP POP POP JUMP JUMPDEST PUSH1 0x0 DUP1 PUSH1 0x0 DUP5 DUP2 SLOAD DUP2 LT PUSH2 0x462 JUMPI PUSH2 0x461 PUSH2 0x1318 JUMP JUMPDEST JUMPDEST SWAP1 PUSH1 0x0 MSTORE PUSH1 0x20 PUSH1 0x0 KECCAK256 SWAP1 PUSH1 0x9 MUL ADD SWAP1 POP PUSH1 0x0 PUSH20 0xFFFFFFFFFFFFFFFFFFFFFFFFFFFFFFFFFFFFFFFF AND DUP2 PUSH1 0x3 ADD PUSH1 0x0 SWAP1 SLOAD SWAP1 PUSH2 0x100 EXP SWAP1 DIV PUSH20 0xFFFFFFFFFFFFFFFFFFFFFFFFFFFFFFFFFFFFFFFF AND PUSH20 0xFFFFFFFFFFFFFFFFFFFFFFFFFFFFFFFFFFFFFFFF AND EQ ISZERO PUSH2 0x4D0 JUMPI PUSH1 0x0 DUP1 REVERT JUMPDEST PUSH2 0x4D9 DUP5 PUSH2 0xC63 JUMP JUMPDEST PUSH2 0x4E2 JUMPI PUSH1 0x0 DUP1 REVERT JUMPDEST DUP1 PUSH1 0x6 ADD SLOAD DUP4 GT ISZERO PUSH2 0x77C JUMPI PUSH1 0x0 DUP2 PUSH1 0x2 ADD PUSH1 0x0 SWAP1 SLOAD SWAP1 PUSH2 0x100 EXP SWAP1 DIV PUSH20 0xFFFFFFFFFFFFFFFFFFFFFFFFFFFFFFFFFFFFFFFF AND SWAP1 POP DUP1 PUSH20 0xFFFFFFFFFFFFFFFFFFFFFFFFFFFFFFFFFFFFFFFF AND PUSH4 0x23B872DD CALLER ADDRESS DUP8 PUSH1 0x40 MLOAD DUP5 PUSH4 0xFFFFFFFF AND PUSH1 0xE0 SHL DUP2 MSTORE PUSH1 0x4 ADD PUSH2 0x554 SWAP4 SWAP3 SWAP2 SWAP1 PUSH2 0x106D JUMP JUMPDEST PUSH1 0x20 PUSH1 0x40 MLOAD DUP1 DUP4 SUB DUP2 PUSH1 0x0 DUP8 DUP1 EXTCODESIZE ISZERO DUP1 ISZERO PUSH2 0x56E JUMPI PUSH1 0x0 DUP1 REVERT JUMPDEST POP GAS CALL ISZERO DUP1 ISZERO PUSH2 0x582 JUMPI RETURNDATASIZE PUSH1 0x0 DUP1 RETURNDATACOPY RETURNDATASIZE PUSH1 0x0 REVERT JUMPDEST POP POP POP POP PUSH1 0x40 MLOAD RETURNDATASIZE PUSH1 0x1F NOT PUSH1 0x1F DUP3 ADD AND DUP3 ADD DUP1 PUSH1 0x40 MSTORE POP DUP2 ADD SWAP1 PUSH2 0x5A6 SWAP2 SWAP1 PUSH2 0xF7C JUMP JUMPDEST PUSH2 0x5AF JUMPI PUSH1 0x0 DUP1 REVERT JUMPDEST PUSH1 0x0 DUP3 PUSH1 0x6 ADD SLOAD EQ ISZERO DUP1 ISZERO PUSH2 0x615 JUMPI POP PUSH1 0x0 PUSH20 0xFFFFFFFFFFFFFFFFFFFFFFFFFFFFFFFFFFFFFFFF AND DUP3 PUSH1 0x7 ADD PUSH1 0x0 SWAP1 SLOAD SWAP1 PUSH2 0x100 EXP SWAP1 DIV PUSH20 0xFFFFFFFFFFFFFFFFFFFFFFFFFFFFFFFFFFFFFFFF AND PUSH20 0xFFFFFFFFFFFFFFFFFFFFFFFFFFFFFFFFFFFFFFFF AND EQ ISZERO JUMPDEST ISZERO PUSH2 0x6D1 JUMPI DUP1 PUSH20 0xFFFFFFFFFFFFFFFFFFFFFFFFFFFFFFFFFFFFFFFF AND PUSH4 0xA9059CBB DUP4 PUSH1 0x7 ADD PUSH1 0x0 SWAP1 SLOAD SWAP1 PUSH2 0x100 EXP SWAP1 DIV PUSH20 0xFFFFFFFFFFFFFFFFFFFFFFFFFFFFFFFFFFFFFFFF AND DUP5 PUSH1 0x6 ADD SLOAD PUSH1 0x40 MLOAD DUP4 PUSH4 0xFFFFFFFF AND PUSH1 0xE0 SHL DUP2 MSTORE PUSH1 0x4 ADD PUSH2 0x67D SWAP3 SWAP2 SWAP1 PUSH2 0x10A4 JUMP JUMPDEST PUSH1 0x20 PUSH1 0x40 MLOAD DUP1 DUP4 SUB DUP2 PUSH1 0x0 DUP8 DUP1 EXTCODESIZE ISZERO DUP1 ISZERO PUSH2 0x697 JUMPI PUSH1 0x0 DUP1 REVERT JUMPDEST POP GAS CALL ISZERO DUP1 ISZERO PUSH2 0x6AB JUMPI RETURNDATASIZE PUSH1 0x0 DUP1 RETURNDATACOPY RETURNDATASIZE PUSH1 0x0 REVERT JUMPDEST POP POP POP POP PUSH1 0x40 MLOAD RETURNDATASIZE PUSH1 0x1F NOT PUSH1 0x1F DUP3 ADD AND DUP3 ADD DUP1 PUSH1 0x40 MSTORE POP DUP2 ADD SWAP1 PUSH2 0x6CF SWAP2 SWAP1 PUSH2 0xF7C JUMP JUMPDEST POP JUMPDEST DUP4 DUP3 PUSH1 0x6 ADD DUP2 SWAP1 SSTORE POP CALLER DUP3 PUSH1 0x7 ADD PUSH1 0x0 PUSH2 0x100 EXP DUP2 SLOAD DUP2 PUSH20 0xFFFFFFFFFFFFFFFFFFFFFFFFFFFFFFFFFFFFFFFF MUL NOT AND SWAP1 DUP4 PUSH20 0xFFFFFFFFFFFFFFFFFFFFFFFFFFFFFFFFFFFFFFFF AND MUL OR SWAP1 SSTORE POP PUSH1 0x1 DUP3 PUSH1 0x8 ADD SLOAD PUSH2 0x72E SWAP2 SWAP1 PUSH2 0x11C3 JUMP JUMPDEST DUP3 PUSH1 0x8 ADD DUP2 SWAP1 SSTORE POP PUSH32 0x558A0D5D5468D74B0DB24C74EB348B42271C2EBB4C9E953CED38AAED95FA4361 DUP6 CALLER DUP7 PUSH1 0x40 MLOAD PUSH2 0x769 SWAP4 SWAP3 SWAP2 SWAP1 PUSH2 0x118C JUMP JUMPDEST PUSH1 0x40 MLOAD DUP1 SWAP2 SUB SWAP1 LOG1 PUSH1 0x1 SWAP3 POP POP POP PUSH2 0x782 JUMP JUMPDEST PUSH1 0x0 SWAP2 POP POP JUMPDEST SWAP3 SWAP2 POP POP JUMP JUMPDEST PUSH1 0x0 DUP1 PUSH1 0x0 DUP4 DUP2 SLOAD DUP2 LT PUSH2 0x79F JUMPI PUSH2 0x79E PUSH2 0x1318 JUMP JUMPDEST JUMPDEST SWAP1 PUSH1 0x0 MSTORE PUSH1 0x20 PUSH1 0x0 KECCAK256 SWAP1 PUSH1 0x9 MUL ADD SWAP1 POP DUP1 PUSH1 0x4 ADD SLOAD TIMESTAMP LT ISZERO PUSH2 0x7C5 JUMPI PUSH1 0x0 SWAP2 POP POP PUSH2 0x7F0 JUMP JUMPDEST DUP1 PUSH1 0x5 ADD SLOAD DUP2 PUSH1 0x4 ADD SLOAD PUSH2 0x7D9 SWAP2 SWAP1 PUSH2 0x11C3 JUMP JUMPDEST TIMESTAMP LT ISZERO PUSH2 0x7EA JUMPI PUSH1 0x1 SWAP2 POP POP PUSH2 0x7F0 JUMP JUMPDEST PUSH1 0x2 SWAP2 POP POP JUMPDEST SWAP2 SWAP1 POP JUMP JUMPDEST PUSH1 0x0 PUSH2 0x816 DUP8 PUSH20 0xFFFFFFFFFFFFFFFFFFFFFFFFFFFFFFFFFFFFFFFF AND PUSH2 0xE5B JUMP JUMPDEST PUSH2 0x81F JUMPI PUSH1 0x0 DUP1 REVERT JUMPDEST PUSH1 0x0 DUP8 SWAP1 POP CALLER PUSH20 0xFFFFFFFFFFFFFFFFFFFFFFFFFFFFFFFFFFFFFFFF AND DUP2 PUSH20 0xFFFFFFFFFFFFFFFFFFFFFFFFFFFFFFFFFFFFFFFF AND PUSH4 0x6352211E DUP10 PUSH1 0x40 MLOAD DUP3 PUSH4 0xFFFFFFFF AND PUSH1 0xE0 SHL DUP2 MSTORE PUSH1 0x4 ADD PUSH2 0x874 SWAP2 SWAP1 PUSH2 0x1103 JUMP JUMPDEST PUSH1 0x20 PUSH1 0x40 MLOAD DUP1 DUP4 SUB DUP2 DUP7 DUP1 EXTCODESIZE ISZERO DUP1 ISZERO PUSH2 0x88C JUMPI PUSH1 0x0 DUP1 REVERT JUMPDEST POP GAS STATICCALL ISZERO DUP1 ISZERO PUSH2 0x8A0 JUMPI RETURNDATASIZE PUSH1 0x0 DUP1 RETURNDATACOPY RETURNDATASIZE PUSH1 0x0 REVERT JUMPDEST POP POP POP POP PUSH1 0x40 MLOAD RETURNDATASIZE PUSH1 0x1F NOT PUSH1 0x1F DUP3 ADD AND DUP3 ADD DUP1 PUSH1 0x40 MSTORE POP DUP2 ADD SWAP1 PUSH2 0x8C4 SWAP2 SWAP1 PUSH2 0xEC2 JUMP JUMPDEST PUSH20 0xFFFFFFFFFFFFFFFFFFFFFFFFFFFFFFFFFFFFFFFF AND EQ PUSH2 0x8E4 JUMPI PUSH1 0x0 DUP1 REVERT JUMPDEST ADDRESS PUSH20 0xFFFFFFFFFFFFFFFFFFFFFFFFFFFFFFFFFFFFFFFF AND DUP2 PUSH20 0xFFFFFFFFFFFFFFFFFFFFFFFFFFFFFFFFFFFFFFFF AND PUSH4 0x81812FC DUP10 PUSH1 0x40 MLOAD DUP3 PUSH4 0xFFFFFFFF AND PUSH1 0xE0 SHL DUP2 MSTORE PUSH1 0x4 ADD PUSH2 0x934 SWAP2 SWAP1 PUSH2 0x1103 JUMP JUMPDEST PUSH1 0x20 PUSH1 0x40 MLOAD DUP1 DUP4 SUB DUP2 DUP7 DUP1 EXTCODESIZE ISZERO DUP1 ISZERO PUSH2 0x94C JUMPI PUSH1 0x0 DUP1 REVERT JUMPDEST POP GAS STATICCALL ISZERO DUP1 ISZERO PUSH2 0x960 JUMPI RETURNDATASIZE PUSH1 0x0 DUP1 RETURNDATACOPY RETURNDATASIZE PUSH1 0x0 REVERT JUMPDEST POP POP POP POP PUSH1 0x40 MLOAD RETURNDATASIZE PUSH1 0x1F NOT PUSH1 0x1F DUP3 ADD AND DUP3 ADD DUP1 PUSH1 0x40 MSTORE POP DUP2 ADD SWAP1 PUSH2 0x984 SWAP2 SWAP1 PUSH2 0xEC2 JUMP JUMPDEST PUSH20 0xFFFFFFFFFFFFFFFFFFFFFFFFFFFFFFFFFFFFFFFF AND EQ PUSH2 0x9A4 JUMPI PUSH1 0x0 DUP1 REVERT JUMPDEST PUSH2 0x9C3 DUP7 PUSH20 0xFFFFFFFFFFFFFFFFFFFFFFFFFFFFFFFFFFFFFFFF AND PUSH2 0xE5B JUMP JUMPDEST PUSH2 0x9CC JUMPI PUSH1 0x0 DUP1 REVERT JUMPDEST PUSH1 0x0 DUP5 EQ ISZERO PUSH2 0x9D9 JUMPI TIMESTAMP SWAP4 POP JUMPDEST PUSH1 0x0 PUSH1 0x40 MLOAD DUP1 PUSH2 0x120 ADD PUSH1 0x40 MSTORE DUP1 DUP11 PUSH20 0xFFFFFFFFFFFFFFFFFFFFFFFFFFFFFFFFFFFFFFFF AND DUP2 MSTORE PUSH1 0x20 ADD DUP10 DUP2 MSTORE PUSH1 0x20 ADD DUP9 PUSH20 0xFFFFFFFFFFFFFFFFFFFFFFFFFFFFFFFFFFFFFFFF AND DUP2 MSTORE PUSH1 0x20 ADD CALLER PUSH20 0xFFFFFFFFFFFFFFFFFFFFFFFFFFFFFFFFFFFFFFFF AND DUP2 MSTORE PUSH1 0x20 ADD DUP7 DUP2 MSTORE PUSH1 0x20 ADD DUP6 DUP2 MSTORE PUSH1 0x20 ADD DUP8 DUP2 MSTORE PUSH1 0x20 ADD PUSH1 0x0 PUSH20 0xFFFFFFFFFFFFFFFFFFFFFFFFFFFFFFFFFFFFFFFF AND DUP2 MSTORE PUSH1 0x20 ADD PUSH1 0x0 DUP2 MSTORE POP SWAP1 POP PUSH1 0x0 DUP2 SWAP1 DUP1 PUSH1 0x1 DUP2 SLOAD ADD DUP1 DUP3 SSTORE DUP1 SWAP2 POP POP PUSH1 0x1 SWAP1 SUB SWAP1 PUSH1 0x0 MSTORE PUSH1 0x20 PUSH1 0x0 KECCAK256 SWAP1 PUSH1 0x9 MUL ADD PUSH1 0x0 SWAP1 SWAP2 SWAP1 SWAP2 SWAP1 SWAP2 POP PUSH1 0x0 DUP3 ADD MLOAD DUP2 PUSH1 0x0 ADD PUSH1 0x0 PUSH2 0x100 EXP DUP2 SLOAD DUP2 PUSH20 0xFFFFFFFFFFFFFFFFFFFFFFFFFFFFFFFFFFFFFFFF MUL NOT AND SWAP1 DUP4 PUSH20 0xFFFFFFFFFFFFFFFFFFFFFFFFFFFFFFFFFFFFFFFF AND MUL OR SWAP1 SSTORE POP PUSH1 0x20 DUP3 ADD MLOAD DUP2 PUSH1 0x1 ADD SSTORE PUSH1 0x40 DUP3 ADD MLOAD DUP2 PUSH1 0x2 ADD PUSH1 0x0 PUSH2 0x100 EXP DUP2 SLOAD DUP2 PUSH20 0xFFFFFFFFFFFFFFFFFFFFFFFFFFFFFFFFFFFFFFFF MUL NOT AND SWAP1 DUP4 PUSH20 0xFFFFFFFFFFFFFFFFFFFFFFFFFFFFFFFFFFFFFFFF AND MUL OR SWAP1 SSTORE POP PUSH1 0x60 DUP3 ADD MLOAD DUP2 PUSH1 0x3 ADD PUSH1 0x0 PUSH2 0x100 EXP DUP2 SLOAD DUP2 PUSH20 0xFFFFFFFFFFFFFFFFFFFFFFFFFFFFFFFFFFFFFFFF MUL NOT AND SWAP1 DUP4 PUSH20 0xFFFFFFFFFFFFFFFFFFFFFFFFFFFFFFFFFFFFFFFF AND MUL OR SWAP1 SSTORE POP PUSH1 0x80 DUP3 ADD MLOAD DUP2 PUSH1 0x4 ADD SSTORE PUSH1 0xA0 DUP3 ADD MLOAD DUP2 PUSH1 0x5 ADD SSTORE PUSH1 0xC0 DUP3 ADD MLOAD DUP2 PUSH1 0x6 ADD SSTORE PUSH1 0xE0 DUP3 ADD MLOAD DUP2 PUSH1 0x7 ADD PUSH1 0x0 PUSH2 0x100 EXP DUP2 SLOAD DUP2 PUSH20 0xFFFFFFFFFFFFFFFFFFFFFFFFFFFFFFFFFFFFFFFF MUL NOT AND SWAP1 DUP4 PUSH20 0xFFFFFFFFFFFFFFFFFFFFFFFFFFFFFFFFFFFFFFFF AND MUL OR SWAP1 SSTORE POP PUSH2 0x100 DUP3 ADD MLOAD DUP2 PUSH1 0x8 ADD SSTORE POP POP PUSH1 0x0 PUSH1 0x1 PUSH1 0x0 DUP1 SLOAD SWAP1 POP PUSH2 0xC08 SWAP2 SWAP1 PUSH2 0x1219 JUMP JUMPDEST SWAP1 POP PUSH32 0xA8BEB8D94445FC53EC7453FD38A803325495D51028FACF1562F5F8002D081242 DUP2 DUP4 PUSH1 0x60 ADD MLOAD DUP5 PUSH1 0x0 ADD MLOAD DUP6 PUSH1 0x40 ADD MLOAD PUSH1 0x40 MLOAD PUSH2 0xC4B SWAP5 SWAP4 SWAP3 SWAP2 SWAP1 PUSH2 0x1147 JUMP JUMPDEST PUSH1 0x40 MLOAD DUP1 SWAP2 SUB SWAP1 LOG1 DUP1 SWAP4 POP POP POP POP SWAP7 SWAP6 POP POP POP POP POP POP JUMP JUMPDEST PUSH1 0x0 PUSH1 0x1 PUSH1 0x2 DUP2 GT ISZERO PUSH2 0xC79 JUMPI PUSH2 0xC78 PUSH2 0x12E9 JUMP JUMPDEST JUMPDEST PUSH2 0xC82 DUP4 PUSH2 0x788 JUMP JUMPDEST PUSH1 0x2 DUP2 GT ISZERO PUSH2 0xC94 JUMPI PUSH2 0xC93 PUSH2 0x12E9 JUMP JUMPDEST JUMPDEST EQ SWAP1 POP SWAP2 SWAP1 POP JUMP JUMPDEST PUSH2 0xCA5 DUP2 PUSH2 0xE23 JUMP JUMPDEST PUSH2 0xCAE JUMPI PUSH1 0x0 DUP1 REVERT JUMPDEST PUSH1 0x0 DUP1 DUP3 DUP2 SLOAD DUP2 LT PUSH2 0xCC3 JUMPI PUSH2 0xCC2 PUSH2 0x1318 JUMP JUMPDEST JUMPDEST SWAP1 PUSH1 0x0 MSTORE PUSH1 0x20 PUSH1 0x0 KECCAK256 SWAP1 PUSH1 0x9 MUL ADD SWAP1 POP PUSH1 0x0 PUSH2 0xCDE DUP4 PUSH2 0x20E JUMP JUMPDEST SWAP1 POP CALLER PUSH20 0xFFFFFFFFFFFFFFFFFFFFFFFFFFFFFFFFFFFFFFFF AND DUP2 PUSH20 0xFFFFFFFFFFFFFFFFFFFFFFFFFFFFFFFFFFFFFFFF AND EQ PUSH2 0xD18 JUMPI PUSH1 0x0 DUP1 REVERT JUMPDEST PUSH1 0x0 DUP3 PUSH1 0x0 ADD PUSH1 0x0 SWAP1 SLOAD SWAP1 PUSH2 0x100 EXP SWAP1 DIV PUSH20 0xFFFFFFFFFFFFFFFFFFFFFFFFFFFFFFFFFFFFFFFF AND SWAP1 POP DUP1 PUSH20 0xFFFFFFFFFFFFFFFFFFFFFFFFFFFFFFFFFFFFFFFF AND PUSH4 0x23B872DD DUP5 PUSH1 0x3 ADD PUSH1 0x0 SWAP1 SLOAD SWAP1 PUSH2 0x100 EXP SWAP1 DIV PUSH20 0xFFFFFFFFFFFFFFFFFFFFFFFFFFFFFFFFFFFFFFFF AND DUP5 DUP7 PUSH1 0x1 ADD SLOAD PUSH1 0x40 MLOAD DUP5 PUSH4 0xFFFFFFFF AND PUSH1 0xE0 SHL DUP2 MSTORE PUSH1 0x4 ADD PUSH2 0xDA6 SWAP4 SWAP3 SWAP2 SWAP1 PUSH2 0x106D JUMP JUMPDEST PUSH1 0x0 PUSH1 0x40 MLOAD DUP1 DUP4 SUB DUP2 PUSH1 0x0 DUP8 DUP1 EXTCODESIZE ISZERO DUP1 ISZERO PUSH2 0xDC0 JUMPI PUSH1 0x0 DUP1 REVERT JUMPDEST POP GAS CALL ISZERO DUP1 ISZERO PUSH2 0xDD4 JUMPI RETURNDATASIZE PUSH1 0x0 DUP1 RETURNDATACOPY RETURNDATASIZE PUSH1 0x0 REVERT JUMPDEST POP POP POP POP PUSH32 0x35538759D80C1FD7BB450A0D05601DB5A99FA8B5D073A07C847A9FD61029B107 DUP5 DUP4 PUSH1 0x40 MLOAD PUSH2 0xE09 SWAP3 SWAP2 SWAP1 PUSH2 0x111E JUMP JUMPDEST PUSH1 0x40 MLOAD DUP1 SWAP2 SUB SWAP1 LOG1 POP POP POP POP JUMP JUMPDEST PUSH1 0x0 DUP1 DUP1 SLOAD SWAP1 POP SWAP1 POP SWAP1 JUMP JUMPDEST PUSH1 0x0 PUSH1 0x2 DUP1 DUP2 GT ISZERO PUSH2 0xE38 JUMPI PUSH2 0xE37 PUSH2 0x12E9 JUMP JUMPDEST JUMPDEST PUSH2 0xE41 DUP4 PUSH2 0x788 JUMP JUMPDEST PUSH1 0x2 DUP2 GT ISZERO PUSH2 0xE53 JUMPI PUSH2 0xE52 PUSH2 0x12E9 JUMP JUMPDEST JUMPDEST EQ SWAP1 POP SWAP2 SWAP1 POP JUMP JUMPDEST PUSH1 0x0 DUP1 DUP3 EXTCODESIZE SWAP1 POP PUSH1 0x0 DUP2 GT SWAP2 POP POP SWAP2 SWAP1 POP JUMP JUMPDEST PUSH1 0x0 DUP2 CALLDATALOAD SWAP1 POP PUSH2 0xE7D DUP2 PUSH2 0x1360 JUMP JUMPDEST SWAP3 SWAP2 POP POP JUMP JUMPDEST PUSH1 0x0 DUP2 MLOAD SWAP1 POP PUSH2 0xE92 DUP2 PUSH2 0x1360 JUMP JUMPDEST SWAP3 SWAP2 POP POP JUMP JUMPDEST PUSH1 0x0 DUP2 MLOAD SWAP1 POP PUSH2 0xEA7 DUP2 PUSH2 0x1377 JUMP JUMPDEST SWAP3 SWAP2 POP POP JUMP JUMPDEST PUSH1 0x0 DUP2 CALLDATALOAD SWAP1 POP PUSH2 0xEBC DUP2 PUSH2 0x138E JUMP JUMPDEST SWAP3 SWAP2 POP POP JUMP JUMPDEST PUSH1 0x0 PUSH1 0x20 DUP3 DUP5 SUB SLT ISZERO PUSH2 0xED8 JUMPI PUSH2 0xED7 PUSH2 0x1347 JUMP JUMPDEST JUMPDEST PUSH1 0x0 PUSH2 0xEE6 DUP5 DUP3 DUP6 ADD PUSH2 0xE83 JUMP JUMPDEST SWAP2 POP POP SWAP3 SWAP2 POP POP JUMP JUMPDEST PUSH1 0x0 DUP1 PUSH1 0x0 DUP1 PUSH1 0x0 DUP1 PUSH1 0xC0 DUP8 DUP10 SUB SLT ISZERO PUSH2 0xF0C JUMPI PUSH2 0xF0B PUSH2 0x1347 JUMP JUMPDEST JUMPDEST PUSH1 0x0 PUSH2 0xF1A DUP10 DUP3 DUP11 ADD PUSH2 0xE6E JUMP JUMPDEST SWAP7 POP POP PUSH1 0x20 PUSH2 0xF2B DUP10 DUP3 DUP11 ADD PUSH2 0xEAD JUMP JUMPDEST SWAP6 POP POP PUSH1 0x40 PUSH2 0xF3C DUP10 DUP3 DUP11 ADD PUSH2 0xE6E JUMP JUMPDEST SWAP5 POP POP PUSH1 0x60 PUSH2 0xF4D DUP10 DUP3 DUP11 ADD PUSH2 0xEAD JUMP JUMPDEST SWAP4 POP POP PUSH1 0x80 PUSH2 0xF5E DUP10 DUP3 DUP11 ADD PUSH2 0xEAD JUMP JUMPDEST SWAP3 POP POP PUSH1 0xA0 PUSH2 0xF6F DUP10 DUP3 DUP11 ADD PUSH2 0xEAD JUMP JUMPDEST SWAP2 POP POP SWAP3 SWAP6 POP SWAP3 SWAP6 POP SWAP3 SWAP6 JUMP JUMPDEST PUSH1 0x0 PUSH1 0x20 DUP3 DUP5 SUB SLT ISZERO PUSH2 0xF92 JUMPI PUSH2 0xF91 PUSH2 0x1347 JUMP JUMPDEST JUMPDEST PUSH1 0x0 PUSH2 0xFA0 DUP5 DUP3 DUP6 ADD PUSH2 0xE98 JUMP JUMPDEST SWAP2 POP POP SWAP3 SWAP2 POP POP JUMP JUMPDEST PUSH1 0x0 PUSH1 0x20 DUP3 DUP5 SUB SLT ISZERO PUSH2 0xFBF JUMPI PUSH2 0xFBE PUSH2 0x1347 JUMP JUMPDEST JUMPDEST PUSH1 0x0 PUSH2 0xFCD DUP5 DUP3 DUP6 ADD PUSH2 0xEAD JUMP JUMPDEST SWAP2 POP POP SWAP3 SWAP2 POP POP JUMP JUMPDEST PUSH1 0x0 DUP1 PUSH1 0x40 DUP4 DUP6 SUB SLT ISZERO PUSH2 0xFED JUMPI PUSH2 0xFEC PUSH2 0x1347 JUMP JUMPDEST JUMPDEST PUSH1 0x0 PUSH2 0xFFB DUP6 DUP3 DUP7 ADD PUSH2 0xEAD JUMP JUMPDEST SWAP3 POP POP PUSH1 0x20 PUSH2 0x100C DUP6 DUP3 DUP7 ADD PUSH2 0xEAD JUMP JUMPDEST SWAP2 POP POP SWAP3 POP SWAP3 SWAP1 POP JUMP JUMPDEST PUSH2 0x101F DUP2 PUSH2 0x124D JUMP JUMPDEST DUP3 MSTORE POP POP JUMP JUMPDEST PUSH2 0x102E DUP2 PUSH2 0x125F JUMP JUMPDEST DUP3 MSTORE POP POP JUMP JUMPDEST PUSH2 0x103D DUP2 PUSH2 0x12A8 JUMP JUMPDEST DUP3 MSTORE POP POP JUMP JUMPDEST PUSH2 0x104C DUP2 PUSH2 0x129E JUMP JUMPDEST DUP3 MSTORE POP POP JUMP JUMPDEST PUSH1 0x0 PUSH1 0x20 DUP3 ADD SWAP1 POP PUSH2 0x1067 PUSH1 0x0 DUP4 ADD DUP5 PUSH2 0x1016 JUMP JUMPDEST SWAP3 SWAP2 POP POP JUMP JUMPDEST PUSH1 0x0 PUSH1 0x60 DUP3 ADD SWAP1 POP PUSH2 0x1082 PUSH1 0x0 DUP4 ADD DUP7 PUSH2 0x1016 JUMP JUMPDEST PUSH2 0x108F PUSH1 0x20 DUP4 ADD DUP6 PUSH2 0x1016 JUMP JUMPDEST PUSH2 0x109C PUSH1 0x40 DUP4 ADD DUP5 PUSH2 0x1043 JUMP JUMPDEST SWAP5 SWAP4 POP POP POP POP JUMP JUMPDEST PUSH1 0x0 PUSH1 0x40 DUP3 ADD SWAP1 POP PUSH2 0x10B9 PUSH1 0x0 DUP4 ADD DUP6 PUSH2 0x1016 JUMP JUMPDEST PUSH2 0x10C6 PUSH1 0x20 DUP4 ADD DUP5 PUSH2 0x1043 JUMP JUMPDEST SWAP4 SWAP3 POP POP POP JUMP JUMPDEST PUSH1 0x0 PUSH1 0x20 DUP3 ADD SWAP1 POP PUSH2 0x10E2 PUSH1 0x0 DUP4 ADD DUP5 PUSH2 0x1025 JUMP JUMPDEST SWAP3 SWAP2 POP POP JUMP JUMPDEST PUSH1 0x0 PUSH1 0x20 DUP3 ADD SWAP1 POP PUSH2 0x10FD PUSH1 0x0 DUP4 ADD DUP5 PUSH2 0x1034 JUMP JUMPDEST SWAP3 SWAP2 POP POP JUMP JUMPDEST PUSH1 0x0 PUSH1 0x20 DUP3 ADD SWAP1 POP PUSH2 0x1118 PUSH1 0x0 DUP4 ADD DUP5 PUSH2 0x1043 JUMP JUMPDEST SWAP3 SWAP2 POP POP JUMP JUMPDEST PUSH1 0x0 PUSH1 0x40 DUP3 ADD SWAP1 POP PUSH2 0x1133 PUSH1 0x0 DUP4 ADD DUP6 PUSH2 0x1043 JUMP JUMPDEST PUSH2 0x1140 PUSH1 0x20 DUP4 ADD DUP5 PUSH2 0x1016 JUMP JUMPDEST SWAP4 SWAP3 POP POP POP JUMP JUMPDEST PUSH1 0x0 PUSH1 0x80 DUP3 ADD SWAP1 POP PUSH2 0x115C PUSH1 0x0 DUP4 ADD DUP8 PUSH2 0x1043 JUMP JUMPDEST PUSH2 0x1169 PUSH1 0x20 DUP4 ADD DUP7 PUSH2 0x1016 JUMP JUMPDEST PUSH2 0x1176 PUSH1 0x40 DUP4 ADD DUP6 PUSH2 0x1016 JUMP JUMPDEST PUSH2 0x1183 PUSH1 0x60 DUP4 ADD DUP5 PUSH2 0x1016 JUMP JUMPDEST SWAP6 SWAP5 POP POP POP POP POP JUMP JUMPDEST PUSH1 0x0 PUSH1 0x60 DUP3 ADD SWAP1 POP PUSH2 0x11A1 PUSH1 0x0 DUP4 ADD DUP7 PUSH2 0x1043 JUMP JUMPDEST PUSH2 0x11AE PUSH1 0x20 DUP4 ADD DUP6 PUSH2 0x1016 JUMP JUMPDEST PUSH2 0x11BB PUSH1 0x40 DUP4 ADD DUP5 PUSH2 0x1043 JUMP JUMPDEST SWAP5 SWAP4 POP POP POP POP JUMP JUMPDEST PUSH1 0x0 PUSH2 0x11CE DUP3 PUSH2 0x129E JUMP JUMPDEST SWAP2 POP PUSH2 0x11D9 DUP4 PUSH2 0x129E JUMP JUMPDEST SWAP3 POP DUP3 PUSH32 0xFFFFFFFFFFFFFFFFFFFFFFFFFFFFFFFFFFFFFFFFFFFFFFFFFFFFFFFFFFFFFFFF SUB DUP3 GT ISZERO PUSH2 0x120E JUMPI PUSH2 0x120D PUSH2 0x12BA JUMP JUMPDEST JUMPDEST DUP3 DUP3 ADD SWAP1 POP SWAP3 SWAP2 POP POP JUMP JUMPDEST PUSH1 0x0 PUSH2 0x1224 DUP3 PUSH2 0x129E JUMP JUMPDEST SWAP2 POP PUSH2 0x122F DUP4 PUSH2 0x129E JUMP JUMPDEST SWAP3 POP DUP3 DUP3 LT ISZERO PUSH2 0x1242 JUMPI PUSH2 0x1241 PUSH2 0x12BA JUMP JUMPDEST JUMPDEST DUP3 DUP3 SUB SWAP1 POP SWAP3 SWAP2 POP POP JUMP JUMPDEST PUSH1 0x0 PUSH2 0x1258 DUP3 PUSH2 0x127E JUMP JUMPDEST SWAP1 POP SWAP2 SWAP1 POP JUMP JUMPDEST PUSH1 0x0 DUP2 ISZERO ISZERO SWAP1 POP SWAP2 SWAP1 POP JUMP JUMPDEST PUSH1 0x0 DUP2 SWAP1 POP PUSH2 0x1279 DUP3 PUSH2 0x134C JUMP JUMPDEST SWAP2 SWAP1 POP JUMP JUMPDEST PUSH1 0x0 PUSH20 0xFFFFFFFFFFFFFFFFFFFFFFFFFFFFFFFFFFFFFFFF DUP3 AND SWAP1 POP SWAP2 SWAP1 POP JUMP JUMPDEST PUSH1 0x0 DUP2 SWAP1 POP SWAP2 SWAP1 POP JUMP JUMPDEST PUSH1 0x0 PUSH2 0x12B3 DUP3 PUSH2 0x126B JUMP JUMPDEST SWAP1 POP SWAP2 SWAP1 POP JUMP JUMPDEST PUSH32 0x4E487B7100000000000000000000000000000000000000000000000000000000 PUSH1 0x0 MSTORE PUSH1 0x11 PUSH1 0x4 MSTORE PUSH1 0x24 PUSH1 0x0 REVERT JUMPDEST PUSH32 0x4E487B7100000000000000000000000000000000000000000000000000000000 PUSH1 0x0 MSTORE PUSH1 0x21 PUSH1 0x4 MSTORE PUSH1 0x24 PUSH1 0x0 REVERT JUMPDEST PUSH32 0x4E487B7100000000000000000000000000000000000000000000000000000000 PUSH1 0x0 MSTORE PUSH1 0x32 PUSH1 0x4 MSTORE PUSH1 0x24 PUSH1 0x0 REVERT JUMPDEST PUSH1 0x0 DUP1 REVERT JUMPDEST PUSH1 0x3 DUP2 LT PUSH2 0x135D JUMPI PUSH2 0x135C PUSH2 0x12E9 JUMP JUMPDEST JUMPDEST POP JUMP JUMPDEST PUSH2 0x1369 DUP2 PUSH2 0x124D JUMP JUMPDEST DUP2 EQ PUSH2 0x1374 JUMPI PUSH1 0x0 DUP1 REVERT JUMPDEST POP JUMP JUMPDEST PUSH2 0x1380 DUP2 PUSH2 0x125F JUMP JUMPDEST DUP2 EQ PUSH2 0x138B JUMPI PUSH1 0x0 DUP1 REVERT JUMPDEST POP JUMP JUMPDEST PUSH2 0x1397 DUP2 PUSH2 0x129E JUMP JUMPDEST DUP2 EQ PUSH2 0x13A2 JUMPI PUSH1 0x0 DUP1 REVERT JUMPDEST POP JUMP INVALID LOG2 PUSH5 0x6970667358 0x22 SLT KECCAK256 0xA6 0xD2 0xC3 0xD1 0xD8 MLOAD LOG3 0x28 PUSH2 0x7622 PUSH26 0x5BEEFD3C069305BC89B4574708AD5AC28261E10A64736F6C6343 STOP ADDMOD SMOD STOP CALLER "
		},
		"gasEstimates": {
			"creation": {
				"codeDepositCost": "1016600",
				"executionCost": "1054",
				"totalCost": "1017654"
			},
			"external": {
				"bid(uint256,uint256)": "infinite",
				"claimAsset(uint256)": "infinite",
				"claimTokens(uint256)": "infinite",
				"createNewBid(address,uint256,address,uint256,uint256,uint256)": "infinite",
				"getStatus(uint256)": "infinite",
				"getTotalBids()": "2511",
				"getWinner(uint256)": "infinite",
				"isActive(uint256)": "infinite",
				"isFinished(uint256)": "infinite"
			}
		},
		"methodIdentifiers": {
			"bid(uint256,uint256)": "598647f8",
			"claimAsset(uint256)": "d3c2a592",
			"claimTokens(uint256)": "46e04a2f",
			"createNewBid(address,uint256,address,uint256,uint256,uint256)": "66361ae8",
			"getStatus(uint256)": "5c622a0e",
			"getTotalBids()": "dcc70b9a",
			"getWinner(uint256)": "4129b2c9",
			"isActive(uint256)": "82afd23b",
			"isFinished(uint256)": "e8ba6509"
		}
	},
	"abi": [
		{
			"anonymous": false,
			"inputs": [
				{
					"indexed": false,
					"internalType": "uint256",
					"name": "_bidIndex",
					"type": "uint256"
				},
				{
					"indexed": false,
					"internalType": "address",
					"name": "_claimer",
					"type": "address"
				}
			],
			"name": "Claim",
			"type": "event"
		},
		{
			"anonymous": false,
			"inputs": [
				{
					"indexed": false,
					"internalType": "uint256",
					"name": "_index",
					"type": "uint256"
				},
				{
					"indexed": false,
					"internalType": "address",
					"name": "_creator",
					"type": "address"
				},
				{
					"indexed": false,
					"internalType": "address",
					"name": "_asset",
					"type": "address"
				},
				{
					"indexed": false,
					"internalType": "address",
					"name": "_token",
					"type": "address"
				}
			],
			"name": "CreateNewBid",
			"type": "event"
		},
		{
			"anonymous": false,
			"inputs": [
				{
					"indexed": false,
					"internalType": "uint256",
					"name": "_index",
					"type": "uint256"
				},
				{
					"indexed": false,
					"internalType": "address",
					"name": "_bidder",
					"type": "address"
				},
				{
					"indexed": false,
					"internalType": "uint256",
					"name": "_amount",
					"type": "uint256"
				}
			],
			"name": "NewBid",
			"type": "event"
		},
		{
			"inputs": [
				{
					"internalType": "uint256",
					"name": "_bidIndex",
					"type": "uint256"
				},
				{
					"internalType": "uint256",
					"name": "_amount",
					"type": "uint256"
				}
			],
			"name": "bid",
			"outputs": [
				{
					"internalType": "bool",
					"name": "",
					"type": "bool"
				}
			],
			"stateMutability": "nonpayable",
			"type": "function"
		},
		{
			"inputs": [
				{
					"internalType": "uint256",
					"name": "_bidIndex",
					"type": "uint256"
				}
			],
			"name": "claimAsset",
			"outputs": [],
			"stateMutability": "nonpayable",
			"type": "function"
		},
		{
			"inputs": [
				{
					"internalType": "uint256",
					"name": "_bidIndex",
					"type": "uint256"
				}
			],
			"name": "claimTokens",
			"outputs": [],
			"stateMutability": "nonpayable",
			"type": "function"
		},
		{
			"inputs": [
				{
					"internalType": "address",
					"name": "_assetAddress",
					"type": "address"
				},
				{
					"internalType": "uint256",
					"name": "_assetId",
					"type": "uint256"
				},
				{
					"internalType": "address",
					"name": "_tokenAddress",
					"type": "address"
				},
				{
					"internalType": "uint256",
					"name": "_startPrice",
					"type": "uint256"
				},
				{
					"internalType": "uint256",
					"name": "_startTime",
					"type": "uint256"
				},
				{
					"internalType": "uint256",
					"name": "_duration",
					"type": "uint256"
				}
			],
			"name": "createNewBid",
			"outputs": [
				{
					"internalType": "uint256",
					"name": "",
					"type": "uint256"
				}
			],
			"stateMutability": "nonpayable",
			"type": "function"
		},
		{
			"inputs": [
				{
					"internalType": "uint256",
					"name": "_index",
					"type": "uint256"
				}
			],
			"name": "getStatus",
			"outputs": [
				{
					"internalType": "enum BidProcess.Status",
					"name": "",
					"type": "uint8"
				}
			],
			"stateMutability": "view",
			"type": "function"
		},
		{
			"inputs": [],
			"name": "getTotalBids",
			"outputs": [
				{
					"internalType": "uint256",
					"name": "",
					"type": "uint256"
				}
			],
			"stateMutability": "view",
			"type": "function"
		},
		{
			"inputs": [
				{
					"internalType": "uint256",
					"name": "_index",
					"type": "uint256"
				}
			],
			"name": "getWinner",
			"outputs": [
				{
					"internalType": "address",
					"name": "",
					"type": "address"
				}
			],
			"stateMutability": "view",
			"type": "function"
		},
		{
			"inputs": [
				{
					"internalType": "uint256",
					"name": "_index",
					"type": "uint256"
				}
			],
			"name": "isActive",
			"outputs": [
				{
					"internalType": "bool",
					"name": "",
					"type": "bool"
				}
			],
			"stateMutability": "view",
			"type": "function"
		},
		{
			"inputs": [
				{
					"internalType": "uint256",
					"name": "_index",
					"type": "uint256"
				}
			],
			"name": "isFinished",
			"outputs": [
				{
					"internalType": "bool",
					"name": "",
					"type": "bool"
				}
			],
			"stateMutability": "view",
			"type": "function"
		}
	]
}