{
  "contractName": "ArtifactToken",
  "abi": [
    {
      "inputs": [],
      "stateMutability": "nonpayable",
      "type": "constructor"
    },
    {
      "anonymous": false,
      "inputs": [
        {
          "indexed": true,
          "internalType": "address",
          "name": "owner",
          "type": "address"
        },
        {
          "indexed": true,
          "internalType": "address",
          "name": "approved",
          "type": "address"
        },
        {
          "indexed": true,
          "internalType": "uint256",
          "name": "tokenId",
          "type": "uint256"
        }
      ],
      "name": "Approval",
      "type": "event"
    },
    {
      "anonymous": false,
      "inputs": [
        {
          "indexed": true,
          "internalType": "address",
          "name": "owner",
          "type": "address"
        },
        {
          "indexed": true,
          "internalType": "address",
          "name": "operator",
          "type": "address"
        },
        {
          "indexed": false,
          "internalType": "bool",
          "name": "approved",
          "type": "bool"
        }
      ],
      "name": "ApprovalForAll",
      "type": "event"
    },
    {
      "anonymous": false,
      "inputs": [
        {
          "indexed": false,
          "internalType": "uint256",
          "name": "artifactIndex",
          "type": "uint256"
        },
        {
          "indexed": false,
          "internalType": "address",
          "name": "owner",
          "type": "address"
        }
      ],
      "name": "Mint",
      "type": "event"
    },
    {
      "anonymous": false,
      "inputs": [
        {
          "indexed": true,
          "internalType": "address",
          "name": "from",
          "type": "address"
        },
        {
          "indexed": true,
          "internalType": "address",
          "name": "to",
          "type": "address"
        },
        {
          "indexed": true,
          "internalType": "uint256",
          "name": "tokenId",
          "type": "uint256"
        }
      ],
      "name": "Transfer",
      "type": "event"
    },
    {
      "inputs": [
        {
          "internalType": "address",
          "name": "to",
          "type": "address"
        },
        {
          "internalType": "uint256",
          "name": "tokenId",
          "type": "uint256"
        }
      ],
      "name": "approve",
      "outputs": [],
      "stateMutability": "nonpayable",
      "type": "function"
    },
    {
      "inputs": [
        {
          "internalType": "address",
          "name": "owner",
          "type": "address"
        }
      ],
      "name": "balanceOf",
      "outputs": [
        {
          "internalType": "uint256",
          "name": "",
          "type": "uint256"
        }
      ],
      "stateMutability": "view",
      "type": "function",
      "constant": true
    },
    {
      "inputs": [
        {
          "internalType": "uint256",
          "name": "tokenId",
          "type": "uint256"
        }
      ],
      "name": "getApproved",
      "outputs": [
        {
          "internalType": "address",
          "name": "",
          "type": "address"
        }
      ],
      "stateMutability": "view",
      "type": "function",
      "constant": true
    },
    {
      "inputs": [
        {
          "internalType": "address",
          "name": "owner",
          "type": "address"
        },
        {
          "internalType": "address",
          "name": "operator",
          "type": "address"
        }
      ],
      "name": "isApprovedForAll",
      "outputs": [
        {
          "internalType": "bool",
          "name": "",
          "type": "bool"
        }
      ],
      "stateMutability": "view",
      "type": "function",
      "constant": true
    },
    {
      "inputs": [],
      "name": "name",
      "outputs": [
        {
          "internalType": "string",
          "name": "",
          "type": "string"
        }
      ],
      "stateMutability": "view",
      "type": "function",
      "constant": true
    },
    {
      "inputs": [
        {
          "internalType": "uint256",
          "name": "tokenId",
          "type": "uint256"
        }
      ],
      "name": "ownerOf",
      "outputs": [
        {
          "internalType": "address",
          "name": "",
          "type": "address"
        }
      ],
      "stateMutability": "view",
      "type": "function",
      "constant": true
    },
    {
      "inputs": [
        {
          "internalType": "address",
          "name": "from",
          "type": "address"
        },
        {
          "internalType": "address",
          "name": "to",
          "type": "address"
        },
        {
          "internalType": "uint256",
          "name": "tokenId",
          "type": "uint256"
        }
      ],
      "name": "safeTransferFrom",
      "outputs": [],
      "stateMutability": "nonpayable",
      "type": "function"
    },
    {
      "inputs": [
        {
          "internalType": "address",
          "name": "from",
          "type": "address"
        },
        {
          "internalType": "address",
          "name": "to",
          "type": "address"
        },
        {
          "internalType": "uint256",
          "name": "tokenId",
          "type": "uint256"
        },
        {
          "internalType": "bytes",
          "name": "_data",
          "type": "bytes"
        }
      ],
      "name": "safeTransferFrom",
      "outputs": [],
      "stateMutability": "nonpayable",
      "type": "function"
    },
    {
      "inputs": [
        {
          "internalType": "address",
          "name": "operator",
          "type": "address"
        },
        {
          "internalType": "bool",
          "name": "approved",
          "type": "bool"
        }
      ],
      "name": "setApprovalForAll",
      "outputs": [],
      "stateMutability": "nonpayable",
      "type": "function"
    },
    {
      "inputs": [
        {
          "internalType": "bytes4",
          "name": "interfaceId",
          "type": "bytes4"
        }
      ],
      "name": "supportsInterface",
      "outputs": [
        {
          "internalType": "bool",
          "name": "",
          "type": "bool"
        }
      ],
      "stateMutability": "view",
      "type": "function",
      "constant": true
    },
    {
      "inputs": [],
      "name": "symbol",
      "outputs": [
        {
          "internalType": "string",
          "name": "",
          "type": "string"
        }
      ],
      "stateMutability": "view",
      "type": "function",
      "constant": true
    },
    {
      "inputs": [
        {
          "internalType": "uint256",
          "name": "tokenId",
          "type": "uint256"
        }
      ],
      "name": "tokenURI",
      "outputs": [
        {
          "internalType": "string",
          "name": "",
          "type": "string"
        }
      ],
      "stateMutability": "view",
      "type": "function",
      "constant": true
    },
    {
      "inputs": [
        {
          "internalType": "address",
          "name": "from",
          "type": "address"
        },
        {
          "internalType": "address",
          "name": "to",
          "type": "address"
        },
        {
          "internalType": "uint256",
          "name": "tokenId",
          "type": "uint256"
        }
      ],
      "name": "transferFrom",
      "outputs": [],
      "stateMutability": "nonpayable",
      "type": "function"
    },
    {
      "inputs": [],
      "name": "getTotalArtifacts",
      "outputs": [
        {
          "internalType": "uint256",
          "name": "",
          "type": "uint256"
        }
      ],
      "stateMutability": "view",
      "type": "function",
      "constant": true
    }
  ],
  "bytecode": "0x60806040523480156200001157600080fd5b506040518060400160405280600e81526020017f417274696661637420546f6b656e0000000000000000000000000000000000008152506040518060400160405280600381526020017f4154540000000000000000000000000000000000000000000000000000000000815250816000908051906020019062000096929190620005e1565b508060019080519060200190620000af929190620005e1565b5050506200012f336040518060400160405280600d81526020017f526f73657474612053746f6e65000000000000000000000000000000000000008152506040518060400160405280600481526020017f4a6f686e000000000000000000000000000000000000000000000000000000008152506200023260201b60201c565b50620001ad336040518060400160405280600e81526020017f526f73657474612053746f6e65310000000000000000000000000000000000008152506040518060400160405280600581526020017f4a6f686e310000000000000000000000000000000000000000000000000000008152506200023260201b60201c565b506200022b336040518060400160405280600e81526020017f526f73657474612053746f6e65310000000000000000000000000000000000008152506040518060400160405280600581526020017f4a6f686e310000000000000000000000000000000000000000000000000000008152506200023260201b60201c565b506200093f565b60008060405180604001604052808581526020018481525090506006819080600181540180825580915050600190039060005260206000209060020201600090919091909150600082015181600001908051906020019062000296929190620005e1565b506020820151816001019080519060200190620002b5929190620005e1565b50505060006001600680549050620002ce9190620006ca565b90507ff3cea5493d790af0133817606f7350a91d7f154ea52eaa79d179d4d231e501028133604051620003039291906200075b565b60405180910390a16200032286826200038a60201b62000bad1760201c565b808673ffffffffffffffffffffffffffffffffffffffff16600073ffffffffffffffffffffffffffffffffffffffff167fddf252ad1be2c89b69c2b068fc378daa952ba7f163c4a11628f55a4df523b3ef60405160405180910390a480925050509392505050565b600073ffffffffffffffffffffffffffffffffffffffff168273ffffffffffffffffffffffffffffffffffffffff161415620003fd576040517f08c379a0000000000000000000000000000000000000000000000000000000008152600401620003f490620007e9565b60405180910390fd5b6200040e816200057060201b60201c565b1562000451576040517f08c379a000000000000000000000000000000000000000000000000000000000815260040162000448906200085b565b60405180910390fd5b6200046560008383620005dc60201b60201c565b6001600360008473ffffffffffffffffffffffffffffffffffffffff1673ffffffffffffffffffffffffffffffffffffffff1681526020019081526020016000206000828254620004b791906200087d565b92505081905550816002600083815260200190815260200160002060006101000a81548173ffffffffffffffffffffffffffffffffffffffff021916908373ffffffffffffffffffffffffffffffffffffffff160217905550808273ffffffffffffffffffffffffffffffffffffffff16600073ffffffffffffffffffffffffffffffffffffffff167fddf252ad1be2c89b69c2b068fc378daa952ba7f163c4a11628f55a4df523b3ef60405160405180910390a45050565b60008073ffffffffffffffffffffffffffffffffffffffff166002600084815260200190815260200160002060009054906101000a900473ffffffffffffffffffffffffffffffffffffffff1673ffffffffffffffffffffffffffffffffffffffff1614159050919050565b505050565b828054620005ef9062000909565b90600052602060002090601f0160209004810192826200061357600085556200065f565b82601f106200062e57805160ff19168380011785556200065f565b828001600101855582156200065f579182015b828111156200065e57825182559160200191906001019062000641565b5b5090506200066e919062000672565b5090565b5b808211156200068d57600081600090555060010162000673565b5090565b6000819050919050565b7f4e487b7100000000000000000000000000000000000000000000000000000000600052601160045260246000fd5b6000620006d78262000691565b9150620006e48362000691565b925082821015620006fa57620006f96200069b565b5b828203905092915050565b620007108162000691565b82525050565b600073ffffffffffffffffffffffffffffffffffffffff82169050919050565b6000620007438262000716565b9050919050565b620007558162000736565b82525050565b600060408201905062000772600083018562000705565b6200078160208301846200074a565b9392505050565b600082825260208201905092915050565b7f4552433732313a206d696e7420746f20746865207a65726f2061646472657373600082015250565b6000620007d160208362000788565b9150620007de8262000799565b602082019050919050565b600060208201905081810360008301526200080481620007c2565b9050919050565b7f4552433732313a20746f6b656e20616c7265616479206d696e74656400000000600082015250565b600062000843601c8362000788565b915062000850826200080b565b602082019050919050565b60006020820190508181036000830152620008768162000834565b9050919050565b60006200088a8262000691565b9150620008978362000691565b9250827fffffffffffffffffffffffffffffffffffffffffffffffffffffffffffffffff03821115620008cf57620008ce6200069b565b5b828201905092915050565b7f4e487b7100000000000000000000000000000000000000000000000000000000600052602260045260246000fd5b600060028204905060018216806200092257607f821691505b60208210811415620009395762000938620008da565b5b50919050565b6126b8806200094f6000396000f3fe608060405234801561001057600080fd5b50600436106100ea5760003560e01c80636352211e1161008c578063a22cb46511610066578063a22cb4651461025d578063b88d4fde14610279578063c87b56dd14610295578063e985e9c5146102c5576100ea565b80636352211e146101df57806370a082311461020f57806395d89b411461023f576100ea565b8063095ea7b3116100c8578063095ea7b31461016d57806321a00fcd1461018957806323b872dd146101a757806342842e0e146101c3576100ea565b806301ffc9a7146100ef57806306fdde031461011f578063081812fc1461013d575b600080fd5b6101096004803603810190610104919061163b565b6102f5565b6040516101169190611683565b60405180910390f35b6101276103d7565b6040516101349190611737565b60405180910390f35b6101576004803603810190610152919061178f565b610469565b60405161016491906117fd565b60405180910390f35b61018760048036038101906101829190611844565b6104ee565b005b610191610606565b60405161019e9190611893565b60405180910390f35b6101c160048036038101906101bc91906118ae565b610613565b005b6101dd60048036038101906101d891906118ae565b610673565b005b6101f960048036038101906101f4919061178f565b610693565b60405161020691906117fd565b60405180910390f35b61022960048036038101906102249190611901565b610745565b6040516102369190611893565b60405180910390f35b6102476107fd565b6040516102549190611737565b60405180910390f35b6102776004803603810190610272919061195a565b61088f565b005b610293600480360381019061028e9190611acf565b610a10565b005b6102af60048036038101906102aa919061178f565b610a72565b6040516102bc9190611737565b60405180910390f35b6102df60048036038101906102da9190611b52565b610b19565b6040516102ec9190611683565b60405180910390f35b60007f80ac58cd000000000000000000000000000000000000000000000000000000007bffffffffffffffffffffffffffffffffffffffffffffffffffffffff1916827bffffffffffffffffffffffffffffffffffffffffffffffffffffffff191614806103c057507f5b5e139f000000000000000000000000000000000000000000000000000000007bffffffffffffffffffffffffffffffffffffffffffffffffffffffff1916827bffffffffffffffffffffffffffffffffffffffffffffffffffffffff1916145b806103d057506103cf82610d7b565b5b9050919050565b6060600080546103e690611bc1565b80601f016020809104026020016040519081016040528092919081815260200182805461041290611bc1565b801561045f5780601f106104345761010080835404028352916020019161045f565b820191906000526020600020905b81548152906001019060200180831161044257829003601f168201915b5050505050905090565b600061047482610de5565b6104b3576040517f08c379a00000000000000000000000000000000000000000000000000000000081526004016104aa90611c65565b60405180910390fd5b6004600083815260200190815260200160002060009054906101000a900473ffffffffffffffffffffffffffffffffffffffff169050919050565b60006104f982610693565b90508073ffffffffffffffffffffffffffffffffffffffff168373ffffffffffffffffffffffffffffffffffffffff16141561056a576040517f08c379a000000000000000000000000000000000000000000000000000000000815260040161056190611cf7565b60405180910390fd5b8073ffffffffffffffffffffffffffffffffffffffff16610589610e51565b73ffffffffffffffffffffffffffffffffffffffff1614806105b857506105b7816105b2610e51565b610b19565b5b6105f7576040517f08c379a00000000000000000000000000000000000000000000000000000000081526004016105ee90611d89565b60405180910390fd5b6106018383610e59565b505050565b6000600680549050905090565b61062461061e610e51565b82610f12565b610663576040517f08c379a000000000000000000000000000000000000000000000000000000000815260040161065a90611e1b565b60405180910390fd5b61066e838383610ff0565b505050565b61068e83838360405180602001604052806000815250610a10565b505050565b6000806002600084815260200190815260200160002060009054906101000a900473ffffffffffffffffffffffffffffffffffffffff169050600073ffffffffffffffffffffffffffffffffffffffff168173ffffffffffffffffffffffffffffffffffffffff16141561073c576040517f08c379a000000000000000000000000000000000000000000000000000000000815260040161073390611ead565b60405180910390fd5b80915050919050565b60008073ffffffffffffffffffffffffffffffffffffffff168273ffffffffffffffffffffffffffffffffffffffff1614156107b6576040517f08c379a00000000000000000000000000000000000000000000000000000000081526004016107ad90611f3f565b60405180910390fd5b600360008373ffffffffffffffffffffffffffffffffffffffff1673ffffffffffffffffffffffffffffffffffffffff168152602001908152602001600020549050919050565b60606001805461080c90611bc1565b80601f016020809104026020016040519081016040528092919081815260200182805461083890611bc1565b80156108855780601f1061085a57610100808354040283529160200191610885565b820191906000526020600020905b81548152906001019060200180831161086857829003601f168201915b5050505050905090565b610897610e51565b73ffffffffffffffffffffffffffffffffffffffff168273ffffffffffffffffffffffffffffffffffffffff161415610905576040517f08c379a00000000000000000000000000000000000000000000000000000000081526004016108fc90611fab565b60405180910390fd5b8060056000610912610e51565b73ffffffffffffffffffffffffffffffffffffffff1673ffffffffffffffffffffffffffffffffffffffff16815260200190815260200160002060008473ffffffffffffffffffffffffffffffffffffffff1673ffffffffffffffffffffffffffffffffffffffff16815260200190815260200160002060006101000a81548160ff0219169083151502179055508173ffffffffffffffffffffffffffffffffffffffff166109bf610e51565b73ffffffffffffffffffffffffffffffffffffffff167f17307eab39ab6107e8899845ad3d59bd9653f200f220920489ca2b5937696c3183604051610a049190611683565b60405180910390a35050565b610a21610a1b610e51565b83610f12565b610a60576040517f08c379a0000000000000000000000000000000000000000000000000000000008152600401610a5790611e1b565b60405180910390fd5b610a6c8484848461124c565b50505050565b6060610a7d82610de5565b610abc576040517f08c379a0000000000000000000000000000000000000000000000000000000008152600401610ab39061203d565b60405180910390fd5b6000610ac66112a8565b90506000815111610ae65760405180602001604052806000815250610b11565b80610af0846112bf565b604051602001610b01929190612099565b6040516020818303038152906040525b915050919050565b6000600560008473ffffffffffffffffffffffffffffffffffffffff1673ffffffffffffffffffffffffffffffffffffffff16815260200190815260200160002060008373ffffffffffffffffffffffffffffffffffffffff1673ffffffffffffffffffffffffffffffffffffffff16815260200190815260200160002060009054906101000a900460ff16905092915050565b600073ffffffffffffffffffffffffffffffffffffffff168273ffffffffffffffffffffffffffffffffffffffff161415610c1d576040517f08c379a0000000000000000000000000000000000000000000000000000000008152600401610c1490612109565b60405180910390fd5b610c2681610de5565b15610c66576040517f08c379a0000000000000000000000000000000000000000000000000000000008152600401610c5d90612175565b60405180910390fd5b610c7260008383611420565b6001600360008473ffffffffffffffffffffffffffffffffffffffff1673ffffffffffffffffffffffffffffffffffffffff1681526020019081526020016000206000828254610cc291906121c4565b92505081905550816002600083815260200190815260200160002060006101000a81548173ffffffffffffffffffffffffffffffffffffffff021916908373ffffffffffffffffffffffffffffffffffffffff160217905550808273ffffffffffffffffffffffffffffffffffffffff16600073ffffffffffffffffffffffffffffffffffffffff167fddf252ad1be2c89b69c2b068fc378daa952ba7f163c4a11628f55a4df523b3ef60405160405180910390a45050565b60007f01ffc9a7000000000000000000000000000000000000000000000000000000007bffffffffffffffffffffffffffffffffffffffffffffffffffffffff1916827bffffffffffffffffffffffffffffffffffffffffffffffffffffffff1916149050919050565b60008073ffffffffffffffffffffffffffffffffffffffff166002600084815260200190815260200160002060009054906101000a900473ffffffffffffffffffffffffffffffffffffffff1673ffffffffffffffffffffffffffffffffffffffff1614159050919050565b600033905090565b816004600083815260200190815260200160002060006101000a81548173ffffffffffffffffffffffffffffffffffffffff021916908373ffffffffffffffffffffffffffffffffffffffff160217905550808273ffffffffffffffffffffffffffffffffffffffff16610ecc83610693565b73ffffffffffffffffffffffffffffffffffffffff167f8c5be1e5ebec7d5bd14f71427d1e84f3dd0314c0f7b2291e5b200ac8c7c3b92560405160405180910390a45050565b6000610f1d82610de5565b610f5c576040517f08c379a0000000000000000000000000000000000000000000000000000000008152600401610f539061228c565b60405180910390fd5b6000610f6783610693565b90508073ffffffffffffffffffffffffffffffffffffffff168473ffffffffffffffffffffffffffffffffffffffff161480610fd657508373ffffffffffffffffffffffffffffffffffffffff16610fbe84610469565b73ffffffffffffffffffffffffffffffffffffffff16145b80610fe75750610fe68185610b19565b5b91505092915050565b8273ffffffffffffffffffffffffffffffffffffffff1661101082610693565b73ffffffffffffffffffffffffffffffffffffffff1614611066576040517f08c379a000000000000000000000000000000000000000000000000000000000815260040161105d9061231e565b60405180910390fd5b600073ffffffffffffffffffffffffffffffffffffffff168273ffffffffffffffffffffffffffffffffffffffff1614156110d6576040517f08c379a00000000000000000000000000000000000000000000000000000000081526004016110cd906123b0565b60405180910390fd5b6110e1838383611420565b6110ec600082610e59565b6001600360008573ffffffffffffffffffffffffffffffffffffffff1673ffffffffffffffffffffffffffffffffffffffff168152602001908152602001600020600082825461113c91906123d0565b925050819055506001600360008473ffffffffffffffffffffffffffffffffffffffff1673ffffffffffffffffffffffffffffffffffffffff168152602001908152602001600020600082825461119391906121c4565b92505081905550816002600083815260200190815260200160002060006101000a81548173ffffffffffffffffffffffffffffffffffffffff021916908373ffffffffffffffffffffffffffffffffffffffff160217905550808273ffffffffffffffffffffffffffffffffffffffff168473ffffffffffffffffffffffffffffffffffffffff167fddf252ad1be2c89b69c2b068fc378daa952ba7f163c4a11628f55a4df523b3ef60405160405180910390a4505050565b611257848484610ff0565b61126384848484611425565b6112a2576040517f08c379a000000000000000000000000000000000000000000000000000000000815260040161129990612476565b60405180910390fd5b50505050565b606060405180602001604052806000815250905090565b60606000821415611307576040518060400160405280600181526020017f3000000000000000000000000000000000000000000000000000000000000000815250905061141b565b600082905060005b6000821461133957808061132290612496565b915050600a82611332919061250e565b915061130f565b60008167ffffffffffffffff811115611355576113546119a4565b5b6040519080825280601f01601f1916602001820160405280156113875781602001600182028036833780820191505090505b5090505b60008514611414576001826113a091906123d0565b9150600a856113af919061253f565b60306113bb91906121c4565b60f81b8183815181106113d1576113d0612570565b5b60200101907effffffffffffffffffffffffffffffffffffffffffffffffffffffffffffff1916908160001a905350600a8561140d919061250e565b945061138b565b8093505050505b919050565b505050565b60006114468473ffffffffffffffffffffffffffffffffffffffff166115bc565b156115af578373ffffffffffffffffffffffffffffffffffffffff1663150b7a0261146f610e51565b8786866040518563ffffffff1660e01b815260040161149194939291906125f4565b602060405180830381600087803b1580156114ab57600080fd5b505af19250505080156114dc57506040513d601f19601f820116820180604052508101906114d99190612655565b60015b61155f573d806000811461150c576040519150601f19603f3d011682016040523d82523d6000602084013e611511565b606091505b50600081511415611557576040517f08c379a000000000000000000000000000000000000000000000000000000000815260040161154e90612476565b60405180910390fd5b805181602001fd5b63150b7a0260e01b7bffffffffffffffffffffffffffffffffffffffffffffffffffffffff1916817bffffffffffffffffffffffffffffffffffffffffffffffffffffffff1916149150506115b4565b600190505b949350505050565b600080823b905060008111915050919050565b6000604051905090565b600080fd5b600080fd5b60007fffffffff0000000000000000000000000000000000000000000000000000000082169050919050565b611618816115e3565b811461162357600080fd5b50565b6000813590506116358161160f565b92915050565b600060208284031215611651576116506115d9565b5b600061165f84828501611626565b91505092915050565b60008115159050919050565b61167d81611668565b82525050565b60006020820190506116986000830184611674565b92915050565b600081519050919050565b600082825260208201905092915050565b60005b838110156116d85780820151818401526020810190506116bd565b838111156116e7576000848401525b50505050565b6000601f19601f8301169050919050565b60006117098261169e565b61171381856116a9565b93506117238185602086016116ba565b61172c816116ed565b840191505092915050565b6000602082019050818103600083015261175181846116fe565b905092915050565b6000819050919050565b61176c81611759565b811461177757600080fd5b50565b60008135905061178981611763565b92915050565b6000602082840312156117a5576117a46115d9565b5b60006117b38482850161177a565b91505092915050565b600073ffffffffffffffffffffffffffffffffffffffff82169050919050565b60006117e7826117bc565b9050919050565b6117f7816117dc565b82525050565b600060208201905061181260008301846117ee565b92915050565b611821816117dc565b811461182c57600080fd5b50565b60008135905061183e81611818565b92915050565b6000806040838503121561185b5761185a6115d9565b5b60006118698582860161182f565b925050602061187a8582860161177a565b9150509250929050565b61188d81611759565b82525050565b60006020820190506118a86000830184611884565b92915050565b6000806000606084860312156118c7576118c66115d9565b5b60006118d58682870161182f565b93505060206118e68682870161182f565b92505060406118f78682870161177a565b9150509250925092565b600060208284031215611917576119166115d9565b5b60006119258482850161182f565b91505092915050565b61193781611668565b811461194257600080fd5b50565b6000813590506119548161192e565b92915050565b60008060408385031215611971576119706115d9565b5b600061197f8582860161182f565b925050602061199085828601611945565b9150509250929050565b600080fd5b600080fd5b7f4e487b7100000000000000000000000000000000000000000000000000000000600052604160045260246000fd5b6119dc826116ed565b810181811067ffffffffffffffff821117156119fb576119fa6119a4565b5b80604052505050565b6000611a0e6115cf565b9050611a1a82826119d3565b919050565b600067ffffffffffffffff821115611a3a57611a396119a4565b5b611a43826116ed565b9050602081019050919050565b82818337600083830152505050565b6000611a72611a6d84611a1f565b611a04565b905082815260208101848484011115611a8e57611a8d61199f565b5b611a99848285611a50565b509392505050565b600082601f830112611ab657611ab561199a565b5b8135611ac6848260208601611a5f565b91505092915050565b60008060008060808587031215611ae957611ae86115d9565b5b6000611af78782880161182f565b9450506020611b088782880161182f565b9350506040611b198782880161177a565b925050606085013567ffffffffffffffff811115611b3a57611b396115de565b5b611b4687828801611aa1565b91505092959194509250565b60008060408385031215611b6957611b686115d9565b5b6000611b778582860161182f565b9250506020611b888582860161182f565b9150509250929050565b7f4e487b7100000000000000000000000000000000000000000000000000000000600052602260045260246000fd5b60006002820490506001821680611bd957607f821691505b60208210811415611bed57611bec611b92565b5b50919050565b7f4552433732313a20617070726f76656420717565727920666f72206e6f6e657860008201527f697374656e7420746f6b656e0000000000000000000000000000000000000000602082015250565b6000611c4f602c836116a9565b9150611c5a82611bf3565b604082019050919050565b60006020820190508181036000830152611c7e81611c42565b9050919050565b7f4552433732313a20617070726f76616c20746f2063757272656e74206f776e6560008201527f7200000000000000000000000000000000000000000000000000000000000000602082015250565b6000611ce16021836116a9565b9150611cec82611c85565b604082019050919050565b60006020820190508181036000830152611d1081611cd4565b9050919050565b7f4552433732313a20617070726f76652063616c6c6572206973206e6f74206f7760008201527f6e6572206e6f7220617070726f76656420666f7220616c6c0000000000000000602082015250565b6000611d736038836116a9565b9150611d7e82611d17565b604082019050919050565b60006020820190508181036000830152611da281611d66565b9050919050565b7f4552433732313a207472616e736665722063616c6c6572206973206e6f74206f60008201527f776e6572206e6f7220617070726f766564000000000000000000000000000000602082015250565b6000611e056031836116a9565b9150611e1082611da9565b604082019050919050565b60006020820190508181036000830152611e3481611df8565b9050919050565b7f4552433732313a206f776e657220717565727920666f72206e6f6e657869737460008201527f656e7420746f6b656e0000000000000000000000000000000000000000000000602082015250565b6000611e976029836116a9565b9150611ea282611e3b565b604082019050919050565b60006020820190508181036000830152611ec681611e8a565b9050919050565b7f4552433732313a2062616c616e636520717565727920666f7220746865207a6560008201527f726f206164647265737300000000000000000000000000000000000000000000602082015250565b6000611f29602a836116a9565b9150611f3482611ecd565b604082019050919050565b60006020820190508181036000830152611f5881611f1c565b9050919050565b7f4552433732313a20617070726f766520746f2063616c6c657200000000000000600082015250565b6000611f956019836116a9565b9150611fa082611f5f565b602082019050919050565b60006020820190508181036000830152611fc481611f88565b9050919050565b7f4552433732314d657461646174613a2055524920717565727920666f72206e6f60008201527f6e6578697374656e7420746f6b656e0000000000000000000000000000000000602082015250565b6000612027602f836116a9565b915061203282611fcb565b604082019050919050565b600060208201905081810360008301526120568161201a565b9050919050565b600081905092915050565b60006120738261169e565b61207d818561205d565b935061208d8185602086016116ba565b80840191505092915050565b60006120a58285612068565b91506120b18284612068565b91508190509392505050565b7f4552433732313a206d696e7420746f20746865207a65726f2061646472657373600082015250565b60006120f36020836116a9565b91506120fe826120bd565b602082019050919050565b60006020820190508181036000830152612122816120e6565b9050919050565b7f4552433732313a20746f6b656e20616c7265616479206d696e74656400000000600082015250565b600061215f601c836116a9565b915061216a82612129565b602082019050919050565b6000602082019050818103600083015261218e81612152565b9050919050565b7f4e487b7100000000000000000000000000000000000000000000000000000000600052601160045260246000fd5b60006121cf82611759565b91506121da83611759565b9250827fffffffffffffffffffffffffffffffffffffffffffffffffffffffffffffffff0382111561220f5761220e612195565b5b828201905092915050565b7f4552433732313a206f70657261746f7220717565727920666f72206e6f6e657860008201527f697374656e7420746f6b656e0000000000000000000000000000000000000000602082015250565b6000612276602c836116a9565b91506122818261221a565b604082019050919050565b600060208201905081810360008301526122a581612269565b9050919050565b7f4552433732313a207472616e73666572206f6620746f6b656e2074686174206960008201527f73206e6f74206f776e0000000000000000000000000000000000000000000000602082015250565b60006123086029836116a9565b9150612313826122ac565b604082019050919050565b60006020820190508181036000830152612337816122fb565b9050919050565b7f4552433732313a207472616e7366657220746f20746865207a65726f2061646460008201527f7265737300000000000000000000000000000000000000000000000000000000602082015250565b600061239a6024836116a9565b91506123a58261233e565b604082019050919050565b600060208201905081810360008301526123c98161238d565b9050919050565b60006123db82611759565b91506123e683611759565b9250828210156123f9576123f8612195565b5b828203905092915050565b7f4552433732313a207472616e7366657220746f206e6f6e20455243373231526560008201527f63656976657220696d706c656d656e7465720000000000000000000000000000602082015250565b60006124606032836116a9565b915061246b82612404565b604082019050919050565b6000602082019050818103600083015261248f81612453565b9050919050565b60006124a182611759565b91507fffffffffffffffffffffffffffffffffffffffffffffffffffffffffffffffff8214156124d4576124d3612195565b5b600182019050919050565b7f4e487b7100000000000000000000000000000000000000000000000000000000600052601260045260246000fd5b600061251982611759565b915061252483611759565b925082612534576125336124df565b5b828204905092915050565b600061254a82611759565b915061255583611759565b925082612565576125646124df565b5b828206905092915050565b7f4e487b7100000000000000000000000000000000000000000000000000000000600052603260045260246000fd5b600081519050919050565b600082825260208201905092915050565b60006125c68261259f565b6125d081856125aa565b93506125e08185602086016116ba565b6125e9816116ed565b840191505092915050565b600060808201905061260960008301876117ee565b61261660208301866117ee565b6126236040830185611884565b818103606083015261263581846125bb565b905095945050505050565b60008151905061264f8161160f565b92915050565b60006020828403121561266b5761266a6115d9565b5b600061267984828501612640565b9150509291505056fea26469706673582212200c3428b1a172f9f865bb27a72898acd11003c8d4786087abffca8a0c7a31115d64736f6c63430008090033",
  "immutableReferences": {},
  "source": "// SPDX-License-Identifier: MIT\npragma solidity >=0.4.22 <0.9.0;\n\nimport \"@openzeppelin/contracts/token/ERC721/ERC721.sol\";\n\ncontract ArtifactToken is ERC721{\n\n    struct Artifact{\n        string name;\n        string createdBy;\n    }\n\n    Artifact[] private artifacts;\n\n    event Mint(uint256 artifactIndex, address owner);\n\n    constructor() ERC721(\"Artifact Token\",\"ATT\"){\n        _mintArtifact(msg.sender, \"Rosetta Stone\", \"John\");\n        _mintArtifact(msg.sender, \"Rosetta Stone1\", \"John1\");\n        _mintArtifact(msg.sender, \"Rosetta Stone1\", \"John1\");\n    }\n\n    function _mintArtifact(address owner, \n                           string memory name, \n                           string memory createdBy) internal returns (uint256){\n\n        Artifact memory artifact = Artifact({\n            name:name,\n            createdBy:createdBy\n        });\n\n        artifacts.push(artifact);\n\n        uint256 index = artifacts.length-1;\n        emit Mint(index,msg.sender);\n\n        super._mint(owner, index);\n        emit Transfer(address(0), owner, index);\n\n        return index;\n    }\n\n    function getTotalArtifacts()public view returns(uint){\n        return artifacts.length;\n    }\n}",
  "sourcePath": "/Users/raviranjanchoudhary/Documents/GitHub/NFTMarketPlace/contracts/ArtifactToken.sol",
  "compiler": {
    "name": "solc",
    "version": "0.8.9+commit.e5eed63a.Emscripten.clang"
  },
  "schemaVersion": "3.4.3",
  "updatedAt": "2021-10-31T17:28:37.016Z",
  "networkType": "ethereum",
  "devdoc": {
    "kind": "dev",
    "methods": {
      "approve(address,uint256)": {
        "details": "See {IERC721-approve}."
      },
      "balanceOf(address)": {
        "details": "See {IERC721-balanceOf}."
      },
      "getApproved(uint256)": {
        "details": "See {IERC721-getApproved}."
      },
      "isApprovedForAll(address,address)": {
        "details": "See {IERC721-isApprovedForAll}."
      },
      "name()": {
        "details": "See {IERC721Metadata-name}."
      },
      "ownerOf(uint256)": {
        "details": "See {IERC721-ownerOf}."
      },
      "safeTransferFrom(address,address,uint256)": {
        "details": "See {IERC721-safeTransferFrom}."
      },
      "safeTransferFrom(address,address,uint256,bytes)": {
        "details": "See {IERC721-safeTransferFrom}."
      },
      "setApprovalForAll(address,bool)": {
        "details": "See {IERC721-setApprovalForAll}."
      },
      "supportsInterface(bytes4)": {
        "details": "See {IERC165-supportsInterface}."
      },
      "symbol()": {
        "details": "See {IERC721Metadata-symbol}."
      },
      "tokenURI(uint256)": {
        "details": "See {IERC721Metadata-tokenURI}."
      },
      "transferFrom(address,address,uint256)": {
        "details": "See {IERC721-transferFrom}."
      }
    },
    "version": 1
  },
  "userdoc": {
    "kind": "user",
    "methods": {},
    "version": 1
  }
}