{
  "contractName": "BidProcess",
  "abi": [
    {
      "anonymous": false,
      "inputs": [
        {
          "indexed": false,
          "internalType": "uint256",
          "name": "_bidIndex",
          "type": "uint256"
        },
        {
          "indexed": false,
          "internalType": "address",
          "name": "_claimer",
          "type": "address"
        }
      ],
      "name": "Claim",
      "type": "event"
    },
    {
      "anonymous": false,
      "inputs": [
        {
          "indexed": false,
          "internalType": "uint256",
          "name": "_index",
          "type": "uint256"
        },
        {
          "indexed": false,
          "internalType": "address",
          "name": "_creator",
          "type": "address"
        },
        {
          "indexed": false,
          "internalType": "address",
          "name": "_asset",
          "type": "address"
        },
        {
          "indexed": false,
          "internalType": "address",
          "name": "_token",
          "type": "address"
        }
      ],
      "name": "CreateNewBid",
      "type": "event"
    },
    {
      "anonymous": false,
      "inputs": [
        {
          "indexed": false,
          "internalType": "uint256",
          "name": "_index",
          "type": "uint256"
        },
        {
          "indexed": false,
          "internalType": "address",
          "name": "_bidder",
          "type": "address"
        },
        {
          "indexed": false,
          "internalType": "uint256",
          "name": "_amount",
          "type": "uint256"
        }
      ],
      "name": "NewBid",
      "type": "event"
    },
    {
      "inputs": [
        {
          "internalType": "address",
          "name": "_assetAddress",
          "type": "address"
        },
        {
          "internalType": "uint256",
          "name": "_assetId",
          "type": "uint256"
        },
        {
          "internalType": "address",
          "name": "_tokenAddress",
          "type": "address"
        },
        {
          "internalType": "uint256",
          "name": "_startPrice",
          "type": "uint256"
        },
        {
          "internalType": "uint256",
          "name": "_startTime",
          "type": "uint256"
        },
        {
          "internalType": "uint256",
          "name": "_duration",
          "type": "uint256"
        }
      ],
      "name": "createNewBid",
      "outputs": [
        {
          "internalType": "uint256",
          "name": "",
          "type": "uint256"
        }
      ],
      "stateMutability": "nonpayable",
      "type": "function"
    },
    {
      "inputs": [
        {
          "internalType": "uint256",
          "name": "_bidIndex",
          "type": "uint256"
        },
        {
          "internalType": "uint256",
          "name": "_amount",
          "type": "uint256"
        }
      ],
      "name": "bid",
      "outputs": [
        {
          "internalType": "bool",
          "name": "",
          "type": "bool"
        }
      ],
      "stateMutability": "nonpayable",
      "type": "function"
    },
    {
      "inputs": [
        {
          "internalType": "uint256",
          "name": "_index",
          "type": "uint256"
        }
      ],
      "name": "isActive",
      "outputs": [
        {
          "internalType": "bool",
          "name": "",
          "type": "bool"
        }
      ],
      "stateMutability": "view",
      "type": "function",
      "constant": true
    },
    {
      "inputs": [
        {
          "internalType": "uint256",
          "name": "_index",
          "type": "uint256"
        }
      ],
      "name": "isFinished",
      "outputs": [
        {
          "internalType": "bool",
          "name": "",
          "type": "bool"
        }
      ],
      "stateMutability": "view",
      "type": "function",
      "constant": true
    },
    {
      "inputs": [
        {
          "internalType": "uint256",
          "name": "_index",
          "type": "uint256"
        }
      ],
      "name": "getStatus",
      "outputs": [
        {
          "internalType": "enum BidProcess.Status",
          "name": "",
          "type": "uint8"
        }
      ],
      "stateMutability": "view",
      "type": "function",
      "constant": true
    },
    {
      "inputs": [
        {
          "internalType": "uint256",
          "name": "_index",
          "type": "uint256"
        }
      ],
      "name": "getWinner",
      "outputs": [
        {
          "internalType": "address",
          "name": "",
          "type": "address"
        }
      ],
      "stateMutability": "view",
      "type": "function",
      "constant": true
    },
    {
      "inputs": [
        {
          "internalType": "uint256",
          "name": "_bidIndex",
          "type": "uint256"
        }
      ],
      "name": "claimAsset",
      "outputs": [],
      "stateMutability": "nonpayable",
      "type": "function"
    },
    {
      "inputs": [
        {
          "internalType": "uint256",
          "name": "_bidIndex",
          "type": "uint256"
        }
      ],
      "name": "claimTokens",
      "outputs": [],
      "stateMutability": "nonpayable",
      "type": "function"
    }
  ],
  "bytecode": "0x608060405234801561001057600080fd5b50611347806100206000396000f3fe608060405234801561001057600080fd5b50600436106100885760003560e01c806366361ae81161005b57806366361ae81461013957806382afd23b14610169578063d3c2a59214610199578063e8ba6509146101b557610088565b80634129b2c91461008d57806346e04a2f146100bd578063598647f8146100d95780635c622a0e14610109575b600080fd5b6100a760048036038101906100a29190610e15565b6101e5565b6040516100b49190610e83565b60405180910390f35b6100d760048036038101906100d29190610e15565b610246565b005b6100f360048036038101906100ee9190610e9e565b610422565b6040516101009190610ef9565b60405180910390f35b610123600480360381019061011e9190610e15565b610700565b6040516101309190610f8b565b60405180910390f35b610153600480360381019061014e9190610fd2565b61076d565b604051610160919061106e565b60405180910390f35b610183600480360381019061017e9190610e15565b610bdb565b6040516101909190610ef9565b60405180910390f35b6101b360048036038101906101ae9190610e15565b610c14565b005b6101cf60048036038101906101ca9190610e15565b610d8f565b6040516101dc9190610ef9565b60405180910390f35b60006101f082610d8f565b6101f957600080fd5b6000828154811061020d5761020c611089565b5b906000526020600020906009020160070160009054906101000a900473ffffffffffffffffffffffffffffffffffffffff169050919050565b61024f81610d8f565b61025857600080fd5b600080828154811061026d5761026c611089565b5b906000526020600020906009020190503373ffffffffffffffffffffffffffffffffffffffff168160030160009054906101000a900473ffffffffffffffffffffffffffffffffffffffff1673ffffffffffffffffffffffffffffffffffffffff16146102d957600080fd5b60008160020160009054906101000a900473ffffffffffffffffffffffffffffffffffffffff1690508073ffffffffffffffffffffffffffffffffffffffff1663a9059cbb8360030160009054906101000a900473ffffffffffffffffffffffffffffffffffffffff1684600601546040518363ffffffff1660e01b81526004016103659291906110b8565b602060405180830381600087803b15801561037f57600080fd5b505af1158015610393573d6000803e3d6000fd5b505050506040513d601f19601f820116820180604052508101906103b7919061110d565b6103c057600080fd5b7f35538759d80c1fd7bb450a0d05601db5a99fa8b5d073a07c847a9fd61029b107838360030160009054906101000a900473ffffffffffffffffffffffffffffffffffffffff1660405161041592919061113a565b60405180910390a1505050565b6000806000848154811061043957610438611089565b5b90600052602060002090600902019050600073ffffffffffffffffffffffffffffffffffffffff168160030160009054906101000a900473ffffffffffffffffffffffffffffffffffffffff1673ffffffffffffffffffffffffffffffffffffffff1614156104a757600080fd5b6104b084610bdb565b6104b957600080fd5b80600601548311156106f45760008160020160009054906101000a900473ffffffffffffffffffffffffffffffffffffffff1690508073ffffffffffffffffffffffffffffffffffffffff166323b872dd3330876040518463ffffffff1660e01b815260040161052b93929190611163565b602060405180830381600087803b15801561054557600080fd5b505af1158015610559573d6000803e3d6000fd5b505050506040513d601f19601f8201168201806040525081019061057d919061110d565b61058657600080fd5b6000826006015414610649578073ffffffffffffffffffffffffffffffffffffffff1663a9059cbb8360070160009054906101000a900473ffffffffffffffffffffffffffffffffffffffff1684600601546040518363ffffffff1660e01b81526004016105f59291906110b8565b602060405180830381600087803b15801561060f57600080fd5b505af1158015610623573d6000803e3d6000fd5b505050506040513d601f19601f82011682018060405250810190610647919061110d565b505b838260060181905550338260070160006101000a81548173ffffffffffffffffffffffffffffffffffffffff021916908373ffffffffffffffffffffffffffffffffffffffff160217905550600182600801546106a691906111c9565b82600801819055507f558a0d5d5468d74b0db24c74eb348b42271c2ebb4c9e953ced38aaed95fa43618533866040516106e19392919061121f565b60405180910390a16001925050506106fa565b60009150505b92915050565b6000806000838154811061071757610716611089565b5b90600052602060002090600902019050806004015442101561073d576000915050610768565b8060050154816004015461075191906111c9565b421015610762576001915050610768565b60029150505b919050565b600061078e8773ffffffffffffffffffffffffffffffffffffffff16610dc7565b61079757600080fd5b60008790503373ffffffffffffffffffffffffffffffffffffffff168173ffffffffffffffffffffffffffffffffffffffff16636352211e896040518263ffffffff1660e01b81526004016107ec919061106e565b60206040518083038186803b15801561080457600080fd5b505afa158015610818573d6000803e3d6000fd5b505050506040513d601f19601f8201168201806040525081019061083c919061126b565b73ffffffffffffffffffffffffffffffffffffffff161461085c57600080fd5b3073ffffffffffffffffffffffffffffffffffffffff168173ffffffffffffffffffffffffffffffffffffffff1663081812fc896040518263ffffffff1660e01b81526004016108ac919061106e565b60206040518083038186803b1580156108c457600080fd5b505afa1580156108d8573d6000803e3d6000fd5b505050506040513d601f19601f820116820180604052508101906108fc919061126b565b73ffffffffffffffffffffffffffffffffffffffff161461091c57600080fd5b61093b8673ffffffffffffffffffffffffffffffffffffffff16610dc7565b61094457600080fd5b6000841415610951574293505b60006040518061012001604052808a73ffffffffffffffffffffffffffffffffffffffff1681526020018981526020018873ffffffffffffffffffffffffffffffffffffffff1681526020013373ffffffffffffffffffffffffffffffffffffffff168152602001868152602001858152602001878152602001600073ffffffffffffffffffffffffffffffffffffffff16815260200160008152509050600081908060018154018082558091505060019003906000526020600020906009020160009091909190915060008201518160000160006101000a81548173ffffffffffffffffffffffffffffffffffffffff021916908373ffffffffffffffffffffffffffffffffffffffff1602179055506020820151816001015560408201518160020160006101000a81548173ffffffffffffffffffffffffffffffffffffffff021916908373ffffffffffffffffffffffffffffffffffffffff16021790555060608201518160030160006101000a81548173ffffffffffffffffffffffffffffffffffffffff021916908373ffffffffffffffffffffffffffffffffffffffff1602179055506080820151816004015560a0820151816005015560c0820151816006015560e08201518160070160006101000a81548173ffffffffffffffffffffffffffffffffffffffff021916908373ffffffffffffffffffffffffffffffffffffffff1602179055506101008201518160080155505060006001600080549050610b809190611298565b90507fa8beb8d94445fc53ec7453fd38a803325495d51028facf1562f5f8002d08124281836060015184600001518560400151604051610bc394939291906112cc565b60405180910390a18093505050509695505050505050565b600060016002811115610bf157610bf0610f14565b5b610bfa83610700565b6002811115610c0c57610c0b610f14565b5b149050919050565b610c1d81610d8f565b610c2657600080fd5b6000808281548110610c3b57610c3a611089565b5b906000526020600020906009020190506000610c56836101e5565b90503373ffffffffffffffffffffffffffffffffffffffff168173ffffffffffffffffffffffffffffffffffffffff1614610c9057600080fd5b60008260000160009054906101000a900473ffffffffffffffffffffffffffffffffffffffff1690508073ffffffffffffffffffffffffffffffffffffffff166323b872dd8460030160009054906101000a900473ffffffffffffffffffffffffffffffffffffffff168486600101546040518463ffffffff1660e01b8152600401610d1e93929190611163565b600060405180830381600087803b158015610d3857600080fd5b505af1158015610d4c573d6000803e3d6000fd5b505050507f35538759d80c1fd7bb450a0d05601db5a99fa8b5d073a07c847a9fd61029b1078483604051610d8192919061113a565b60405180910390a150505050565b6000600280811115610da457610da3610f14565b5b610dad83610700565b6002811115610dbf57610dbe610f14565b5b149050919050565b600080823b905060008111915050919050565b600080fd5b6000819050919050565b610df281610ddf565b8114610dfd57600080fd5b50565b600081359050610e0f81610de9565b92915050565b600060208284031215610e2b57610e2a610dda565b5b6000610e3984828501610e00565b91505092915050565b600073ffffffffffffffffffffffffffffffffffffffff82169050919050565b6000610e6d82610e42565b9050919050565b610e7d81610e62565b82525050565b6000602082019050610e986000830184610e74565b92915050565b60008060408385031215610eb557610eb4610dda565b5b6000610ec385828601610e00565b9250506020610ed485828601610e00565b9150509250929050565b60008115159050919050565b610ef381610ede565b82525050565b6000602082019050610f0e6000830184610eea565b92915050565b7f4e487b7100000000000000000000000000000000000000000000000000000000600052602160045260246000fd5b60038110610f5457610f53610f14565b5b50565b6000819050610f6582610f43565b919050565b6000610f7582610f57565b9050919050565b610f8581610f6a565b82525050565b6000602082019050610fa06000830184610f7c565b92915050565b610faf81610e62565b8114610fba57600080fd5b50565b600081359050610fcc81610fa6565b92915050565b60008060008060008060c08789031215610fef57610fee610dda565b5b6000610ffd89828a01610fbd565b965050602061100e89828a01610e00565b955050604061101f89828a01610fbd565b945050606061103089828a01610e00565b935050608061104189828a01610e00565b92505060a061105289828a01610e00565b9150509295509295509295565b61106881610ddf565b82525050565b6000602082019050611083600083018461105f565b92915050565b7f4e487b7100000000000000000000000000000000000000000000000000000000600052603260045260246000fd5b60006040820190506110cd6000830185610e74565b6110da602083018461105f565b9392505050565b6110ea81610ede565b81146110f557600080fd5b50565b600081519050611107816110e1565b92915050565b60006020828403121561112357611122610dda565b5b6000611131848285016110f8565b91505092915050565b600060408201905061114f600083018561105f565b61115c6020830184610e74565b9392505050565b60006060820190506111786000830186610e74565b6111856020830185610e74565b611192604083018461105f565b949350505050565b7f4e487b7100000000000000000000000000000000000000000000000000000000600052601160045260246000fd5b60006111d482610ddf565b91506111df83610ddf565b9250827fffffffffffffffffffffffffffffffffffffffffffffffffffffffffffffffff038211156112145761121361119a565b5b828201905092915050565b6000606082019050611234600083018661105f565b6112416020830185610e74565b61124e604083018461105f565b949350505050565b60008151905061126581610fa6565b92915050565b60006020828403121561128157611280610dda565b5b600061128f84828501611256565b91505092915050565b60006112a382610ddf565b91506112ae83610ddf565b9250828210156112c1576112c061119a565b5b828203905092915050565b60006080820190506112e1600083018761105f565b6112ee6020830186610e74565b6112fb6040830185610e74565b6113086060830184610e74565b9594505050505056fea26469706673582212204be7564a5756e8a3bfce44d7fa87db3d862ee46a203548a7e21ff448a571055464736f6c63430008090033",
  "immutableReferences": {},
  "source": "// SPDX-License-Identifier: MIT\npragma solidity >=0.4.22 <0.9.0;\n\nimport \"@openzeppelin/contracts/token/ERC721/ERC721.sol\";\nimport \"@openzeppelin/contracts/token/ERC20/ERC20.sol\";\nimport \"./AddressUtils.sol\";\n\ncontract BidProcess{\n\n    using AddressUtils for address;\n\n    event CreateNewBid(uint256 _index, address _creator, address _asset, address _token);\n    event NewBid(uint256 _index, address _bidder, uint256 _amount);\n    event Claim(uint256 _bidIndex, address _claimer);\n\n    \n    enum Status { pending, active, finished }\n\n    struct BidInfo{\n        address assetAddress;\n        uint256 assetId;\n        address tokenAddress;\n        address creator;\n        uint256 startTime;\n        uint256 duration;\n        uint256 currentBidAmount;\n        address currentBidOwner;\n        uint256 bidCount;\n    }\n\n    BidInfo[] private bidings;\n\n    function createNewBid(address _assetAddress,\n                          uint256 _assetId,\n                          address _tokenAddress,\n                          uint256 _startPrice,\n                          uint256 _startTime,\n                          uint256 _duration) public returns(uint256){\n        require(_assetAddress.isContract());\n        ERC721 asset = ERC721(_assetAddress);\n        require(asset.ownerOf(_assetId)==msg.sender);\n        require(asset.getApproved(_assetId)==address(this));\n        require(_tokenAddress.isContract());\n\n        if(_startTime==0){\n            _startTime=block.timestamp;\n        }\n\n        BidInfo memory bidInfo = BidInfo({\n            assetAddress:_assetAddress,\n            assetId:_assetId,\n            tokenAddress:_tokenAddress,\n            creator:msg.sender,\n            startTime:_startTime,\n            duration:_duration,\n            currentBidAmount:_startPrice,\n            currentBidOwner:address(0),\n            bidCount:0\n        });\n\n        bidings.push(bidInfo);\n\n        uint256 index=bidings.length-1;\n\n        emit CreateNewBid(index,bidInfo.creator,bidInfo.assetAddress,bidInfo.tokenAddress);\n        \n        return index;\n     }\n\n    function bid(uint256 _bidIndex,\n                 uint256 _amount) public returns(bool){\n        \n        BidInfo storage bidInfo = bidings[_bidIndex];\n        require(bidInfo.creator!=address(0));\n        require(isActive(_bidIndex));\n\n        if(_amount>bidInfo.currentBidAmount){\n\n            ERC20 token=ERC20(bidInfo.tokenAddress);\n            require(token.transferFrom(msg.sender,address(this),_amount));\n            if(bidInfo.currentBidAmount!=0){\n                token.transfer(bidInfo.currentBidOwner,bidInfo.currentBidAmount);\n            }\n\n            bidInfo.currentBidAmount=_amount;\n            bidInfo.currentBidOwner=msg.sender;\n            bidInfo.bidCount=bidInfo.bidCount+1;\n\n            emit NewBid(_bidIndex,msg.sender,_amount);\n            return true;\n            }\n        \n        return false;\n        }\n\n    function isActive(uint256 _index) public view returns (bool) {\n        return getStatus(_index) == Status.active; \n        }\n\n    function isFinished(uint256 _index) public view returns (bool) { \n        return getStatus(_index) == Status.finished; \n        }\n\n    function getStatus(uint256 _index) public view returns (Status) {\n        BidInfo storage bidInfo = bidings[_index];\n        if (block.timestamp < bidInfo.startTime) {\n            return Status.pending;\n        } else if (block.timestamp < (bidInfo.startTime + (bidInfo.duration))) {\n            return Status.active;\n        } else {\n            return Status.finished;\n        }\n    }\n\n    function getWinner(uint256 _index) public view returns (address) {\n        require(isFinished(_index));\n        return bidings[_index].currentBidOwner;\n    }\n\n    function claimAsset(uint256 _bidIndex) public{\n        require(isFinished(_bidIndex));\n        BidInfo storage bidInfo = bidings[_bidIndex];\n\n        address winner = getWinner(_bidIndex);\n        require(winner==msg.sender);\n\n        ERC721 asset = ERC721(bidInfo.assetAddress);\n        asset.transferFrom(bidInfo.creator,winner,bidInfo.assetId);\n\n        emit Claim(_bidIndex,winner);\n    }\n\n    function claimTokens(uint256 _bidIndex) public{\n        require(isFinished(_bidIndex));\n        BidInfo storage bidInfo = bidings[_bidIndex];\n\n        require(bidInfo.creator==msg.sender);\n\n        ERC20 token = ERC20(bidInfo.tokenAddress);\n        require(token.transfer(bidInfo.creator,bidInfo.currentBidAmount));\n\n        emit Claim(_bidIndex,bidInfo.creator);\n    }\n}",
  "sourcePath": "/Users/raviranjanchoudhary/Documents/GitHub/NFTMarketPlace/contracts/BidProcess.sol",
  "compiler": {
    "name": "solc",
    "version": "0.8.9+commit.e5eed63a.Emscripten.clang"
  },
  "schemaVersion": "3.4.3",
  "updatedAt": "2021-10-31T12:41:39.557Z",
  "networkType": "ethereum",
  "devdoc": {
    "kind": "dev",
    "methods": {},
    "version": 1
  },
  "userdoc": {
    "kind": "user",
    "methods": {},
    "version": 1
  }
}