{
  "contractName": "BidProcess",
  "abi": [
    {
      "anonymous": false,
      "inputs": [
        {
          "indexed": false,
          "internalType": "uint256",
          "name": "_bidIndex",
          "type": "uint256"
        },
        {
          "indexed": false,
          "internalType": "address",
          "name": "_claimer",
          "type": "address"
        }
      ],
      "name": "Claim",
      "type": "event"
    },
    {
      "anonymous": false,
      "inputs": [
        {
          "indexed": false,
          "internalType": "uint256",
          "name": "_index",
          "type": "uint256"
        },
        {
          "indexed": false,
          "internalType": "address",
          "name": "_creator",
          "type": "address"
        },
        {
          "indexed": false,
          "internalType": "address",
          "name": "_asset",
          "type": "address"
        },
        {
          "indexed": false,
          "internalType": "address",
          "name": "_token",
          "type": "address"
        }
      ],
      "name": "CreateNewBid",
      "type": "event"
    },
    {
      "anonymous": false,
      "inputs": [
        {
          "indexed": false,
          "internalType": "uint256",
          "name": "_index",
          "type": "uint256"
        },
        {
          "indexed": false,
          "internalType": "address",
          "name": "_bidder",
          "type": "address"
        },
        {
          "indexed": false,
          "internalType": "uint256",
          "name": "_amount",
          "type": "uint256"
        }
      ],
      "name": "NewBid",
      "type": "event"
    },
    {
      "inputs": [
        {
          "internalType": "address",
          "name": "_assetAddress",
          "type": "address"
        },
        {
          "internalType": "uint256",
          "name": "_assetId",
          "type": "uint256"
        },
        {
          "internalType": "address",
          "name": "_tokenAddress",
          "type": "address"
        },
        {
          "internalType": "uint256",
          "name": "_startPrice",
          "type": "uint256"
        },
        {
          "internalType": "uint256",
          "name": "_startTime",
          "type": "uint256"
        },
        {
          "internalType": "uint256",
          "name": "_duration",
          "type": "uint256"
        }
      ],
      "name": "createNewBid",
      "outputs": [
        {
          "internalType": "uint256",
          "name": "",
          "type": "uint256"
        }
      ],
      "stateMutability": "nonpayable",
      "type": "function"
    },
    {
      "inputs": [
        {
          "internalType": "uint256",
          "name": "_bidIndex",
          "type": "uint256"
        },
        {
          "internalType": "uint256",
          "name": "_amount",
          "type": "uint256"
        }
      ],
      "name": "bid",
      "outputs": [
        {
          "internalType": "bool",
          "name": "",
          "type": "bool"
        }
      ],
      "stateMutability": "nonpayable",
      "type": "function"
    },
    {
      "inputs": [
        {
          "internalType": "uint256",
          "name": "_index",
          "type": "uint256"
        }
      ],
      "name": "isActive",
      "outputs": [
        {
          "internalType": "bool",
          "name": "",
          "type": "bool"
        }
      ],
      "stateMutability": "view",
      "type": "function",
      "constant": true
    },
    {
      "inputs": [
        {
          "internalType": "uint256",
          "name": "_index",
          "type": "uint256"
        }
      ],
      "name": "isFinished",
      "outputs": [
        {
          "internalType": "bool",
          "name": "",
          "type": "bool"
        }
      ],
      "stateMutability": "view",
      "type": "function",
      "constant": true
    },
    {
      "inputs": [
        {
          "internalType": "uint256",
          "name": "_index",
          "type": "uint256"
        }
      ],
      "name": "getStatus",
      "outputs": [
        {
          "internalType": "enum BidProcess.Status",
          "name": "",
          "type": "uint8"
        }
      ],
      "stateMutability": "view",
      "type": "function",
      "constant": true
    },
    {
      "inputs": [
        {
          "internalType": "uint256",
          "name": "_index",
          "type": "uint256"
        }
      ],
      "name": "getWinner",
      "outputs": [
        {
          "internalType": "address",
          "name": "",
          "type": "address"
        }
      ],
      "stateMutability": "view",
      "type": "function",
      "constant": true
    },
    {
      "inputs": [
        {
          "internalType": "uint256",
          "name": "_bidIndex",
          "type": "uint256"
        }
      ],
      "name": "claimAsset",
      "outputs": [],
      "stateMutability": "nonpayable",
      "type": "function"
    },
    {
      "inputs": [
        {
          "internalType": "uint256",
          "name": "_bidIndex",
          "type": "uint256"
        }
      ],
      "name": "claimTokens",
      "outputs": [],
      "stateMutability": "nonpayable",
      "type": "function"
    },
    {
      "inputs": [],
      "name": "getTotalBids",
      "outputs": [
        {
          "internalType": "uint256",
          "name": "",
          "type": "uint256"
        }
      ],
      "stateMutability": "view",
      "type": "function",
      "constant": true
    }
  ],
  "bytecode": "0x608060405234801561001057600080fd5b5061137c806100206000396000f3fe608060405234801561001057600080fd5b50600436106100935760003560e01c806366361ae81161006657806366361ae81461014457806382afd23b14610174578063d3c2a592146101a4578063dcc70b9a146101c0578063e8ba6509146101de57610093565b80634129b2c91461009857806346e04a2f146100c8578063598647f8146100e45780635c622a0e14610114575b600080fd5b6100b260048036038101906100ad9190610e4a565b61020e565b6040516100bf9190610eb8565b60405180910390f35b6100e260048036038101906100dd9190610e4a565b61026f565b005b6100fe60048036038101906100f99190610ed3565b61044b565b60405161010b9190610f2e565b60405180910390f35b61012e60048036038101906101299190610e4a565b610729565b60405161013b9190610fc0565b60405180910390f35b61015e60048036038101906101599190611007565b610796565b60405161016b91906110a3565b60405180910390f35b61018e60048036038101906101899190610e4a565b610c04565b60405161019b9190610f2e565b60405180910390f35b6101be60048036038101906101b99190610e4a565b610c3d565b005b6101c8610db8565b6040516101d591906110a3565b60405180910390f35b6101f860048036038101906101f39190610e4a565b610dc4565b6040516102059190610f2e565b60405180910390f35b600061021982610dc4565b61022257600080fd5b60008281548110610236576102356110be565b5b906000526020600020906009020160070160009054906101000a900473ffffffffffffffffffffffffffffffffffffffff169050919050565b61027881610dc4565b61028157600080fd5b6000808281548110610296576102956110be565b5b906000526020600020906009020190503373ffffffffffffffffffffffffffffffffffffffff168160030160009054906101000a900473ffffffffffffffffffffffffffffffffffffffff1673ffffffffffffffffffffffffffffffffffffffff161461030257600080fd5b60008160020160009054906101000a900473ffffffffffffffffffffffffffffffffffffffff1690508073ffffffffffffffffffffffffffffffffffffffff1663a9059cbb8360030160009054906101000a900473ffffffffffffffffffffffffffffffffffffffff1684600601546040518363ffffffff1660e01b815260040161038e9291906110ed565b602060405180830381600087803b1580156103a857600080fd5b505af11580156103bc573d6000803e3d6000fd5b505050506040513d601f19601f820116820180604052508101906103e09190611142565b6103e957600080fd5b7f35538759d80c1fd7bb450a0d05601db5a99fa8b5d073a07c847a9fd61029b107838360030160009054906101000a900473ffffffffffffffffffffffffffffffffffffffff1660405161043e92919061116f565b60405180910390a1505050565b60008060008481548110610462576104616110be565b5b90600052602060002090600902019050600073ffffffffffffffffffffffffffffffffffffffff168160030160009054906101000a900473ffffffffffffffffffffffffffffffffffffffff1673ffffffffffffffffffffffffffffffffffffffff1614156104d057600080fd5b6104d984610c04565b6104e257600080fd5b806006015483111561071d5760008160020160009054906101000a900473ffffffffffffffffffffffffffffffffffffffff1690508073ffffffffffffffffffffffffffffffffffffffff166323b872dd3330876040518463ffffffff1660e01b815260040161055493929190611198565b602060405180830381600087803b15801561056e57600080fd5b505af1158015610582573d6000803e3d6000fd5b505050506040513d601f19601f820116820180604052508101906105a69190611142565b6105af57600080fd5b6000826006015414610672578073ffffffffffffffffffffffffffffffffffffffff1663a9059cbb8360070160009054906101000a900473ffffffffffffffffffffffffffffffffffffffff1684600601546040518363ffffffff1660e01b815260040161061e9291906110ed565b602060405180830381600087803b15801561063857600080fd5b505af115801561064c573d6000803e3d6000fd5b505050506040513d601f19601f820116820180604052508101906106709190611142565b505b838260060181905550338260070160006101000a81548173ffffffffffffffffffffffffffffffffffffffff021916908373ffffffffffffffffffffffffffffffffffffffff160217905550600182600801546106cf91906111fe565b82600801819055507f558a0d5d5468d74b0db24c74eb348b42271c2ebb4c9e953ced38aaed95fa436185338660405161070a93929190611254565b60405180910390a1600192505050610723565b60009150505b92915050565b600080600083815481106107405761073f6110be565b5b906000526020600020906009020190508060040154421015610766576000915050610791565b8060050154816004015461077a91906111fe565b42101561078b576001915050610791565b60029150505b919050565b60006107b78773ffffffffffffffffffffffffffffffffffffffff16610dfc565b6107c057600080fd5b60008790503373ffffffffffffffffffffffffffffffffffffffff168173ffffffffffffffffffffffffffffffffffffffff16636352211e896040518263ffffffff1660e01b815260040161081591906110a3565b60206040518083038186803b15801561082d57600080fd5b505afa158015610841573d6000803e3d6000fd5b505050506040513d601f19601f8201168201806040525081019061086591906112a0565b73ffffffffffffffffffffffffffffffffffffffff161461088557600080fd5b3073ffffffffffffffffffffffffffffffffffffffff168173ffffffffffffffffffffffffffffffffffffffff1663081812fc896040518263ffffffff1660e01b81526004016108d591906110a3565b60206040518083038186803b1580156108ed57600080fd5b505afa158015610901573d6000803e3d6000fd5b505050506040513d601f19601f8201168201806040525081019061092591906112a0565b73ffffffffffffffffffffffffffffffffffffffff161461094557600080fd5b6109648673ffffffffffffffffffffffffffffffffffffffff16610dfc565b61096d57600080fd5b600084141561097a574293505b60006040518061012001604052808a73ffffffffffffffffffffffffffffffffffffffff1681526020018981526020018873ffffffffffffffffffffffffffffffffffffffff1681526020013373ffffffffffffffffffffffffffffffffffffffff168152602001868152602001858152602001878152602001600073ffffffffffffffffffffffffffffffffffffffff16815260200160008152509050600081908060018154018082558091505060019003906000526020600020906009020160009091909190915060008201518160000160006101000a81548173ffffffffffffffffffffffffffffffffffffffff021916908373ffffffffffffffffffffffffffffffffffffffff1602179055506020820151816001015560408201518160020160006101000a81548173ffffffffffffffffffffffffffffffffffffffff021916908373ffffffffffffffffffffffffffffffffffffffff16021790555060608201518160030160006101000a81548173ffffffffffffffffffffffffffffffffffffffff021916908373ffffffffffffffffffffffffffffffffffffffff1602179055506080820151816004015560a0820151816005015560c0820151816006015560e08201518160070160006101000a81548173ffffffffffffffffffffffffffffffffffffffff021916908373ffffffffffffffffffffffffffffffffffffffff1602179055506101008201518160080155505060006001600080549050610ba991906112cd565b90507fa8beb8d94445fc53ec7453fd38a803325495d51028facf1562f5f8002d08124281836060015184600001518560400151604051610bec9493929190611301565b60405180910390a18093505050509695505050505050565b600060016002811115610c1a57610c19610f49565b5b610c2383610729565b6002811115610c3557610c34610f49565b5b149050919050565b610c4681610dc4565b610c4f57600080fd5b6000808281548110610c6457610c636110be565b5b906000526020600020906009020190506000610c7f8361020e565b90503373ffffffffffffffffffffffffffffffffffffffff168173ffffffffffffffffffffffffffffffffffffffff1614610cb957600080fd5b60008260000160009054906101000a900473ffffffffffffffffffffffffffffffffffffffff1690508073ffffffffffffffffffffffffffffffffffffffff166323b872dd8460030160009054906101000a900473ffffffffffffffffffffffffffffffffffffffff168486600101546040518463ffffffff1660e01b8152600401610d4793929190611198565b600060405180830381600087803b158015610d6157600080fd5b505af1158015610d75573d6000803e3d6000fd5b505050507f35538759d80c1fd7bb450a0d05601db5a99fa8b5d073a07c847a9fd61029b1078483604051610daa92919061116f565b60405180910390a150505050565b60008080549050905090565b6000600280811115610dd957610dd8610f49565b5b610de283610729565b6002811115610df457610df3610f49565b5b149050919050565b600080823b905060008111915050919050565b600080fd5b6000819050919050565b610e2781610e14565b8114610e3257600080fd5b50565b600081359050610e4481610e1e565b92915050565b600060208284031215610e6057610e5f610e0f565b5b6000610e6e84828501610e35565b91505092915050565b600073ffffffffffffffffffffffffffffffffffffffff82169050919050565b6000610ea282610e77565b9050919050565b610eb281610e97565b82525050565b6000602082019050610ecd6000830184610ea9565b92915050565b60008060408385031215610eea57610ee9610e0f565b5b6000610ef885828601610e35565b9250506020610f0985828601610e35565b9150509250929050565b60008115159050919050565b610f2881610f13565b82525050565b6000602082019050610f436000830184610f1f565b92915050565b7f4e487b7100000000000000000000000000000000000000000000000000000000600052602160045260246000fd5b60038110610f8957610f88610f49565b5b50565b6000819050610f9a82610f78565b919050565b6000610faa82610f8c565b9050919050565b610fba81610f9f565b82525050565b6000602082019050610fd56000830184610fb1565b92915050565b610fe481610e97565b8114610fef57600080fd5b50565b60008135905061100181610fdb565b92915050565b60008060008060008060c0878903121561102457611023610e0f565b5b600061103289828a01610ff2565b965050602061104389828a01610e35565b955050604061105489828a01610ff2565b945050606061106589828a01610e35565b935050608061107689828a01610e35565b92505060a061108789828a01610e35565b9150509295509295509295565b61109d81610e14565b82525050565b60006020820190506110b86000830184611094565b92915050565b7f4e487b7100000000000000000000000000000000000000000000000000000000600052603260045260246000fd5b60006040820190506111026000830185610ea9565b61110f6020830184611094565b9392505050565b61111f81610f13565b811461112a57600080fd5b50565b60008151905061113c81611116565b92915050565b60006020828403121561115857611157610e0f565b5b60006111668482850161112d565b91505092915050565b60006040820190506111846000830185611094565b6111916020830184610ea9565b9392505050565b60006060820190506111ad6000830186610ea9565b6111ba6020830185610ea9565b6111c76040830184611094565b949350505050565b7f4e487b7100000000000000000000000000000000000000000000000000000000600052601160045260246000fd5b600061120982610e14565b915061121483610e14565b9250827fffffffffffffffffffffffffffffffffffffffffffffffffffffffffffffffff03821115611249576112486111cf565b5b828201905092915050565b60006060820190506112696000830186611094565b6112766020830185610ea9565b6112836040830184611094565b949350505050565b60008151905061129a81610fdb565b92915050565b6000602082840312156112b6576112b5610e0f565b5b60006112c48482850161128b565b91505092915050565b60006112d882610e14565b91506112e383610e14565b9250828210156112f6576112f56111cf565b5b828203905092915050565b60006080820190506113166000830187611094565b6113236020830186610ea9565b6113306040830185610ea9565b61133d6060830184610ea9565b9594505050505056fea264697066735822122045b396ba34f6821aab8e1b75cdd9ba62fbf8f425feac649a937e8caaab01d4ea64736f6c63430008090033",
  "immutableReferences": {},
  "source": "// SPDX-License-Identifier: MIT\npragma solidity >=0.4.22 <0.9.0;\n\nimport \"@openzeppelin/contracts/token/ERC721/ERC721.sol\";\nimport \"@openzeppelin/contracts/token/ERC20/ERC20.sol\";\nimport \"./AddressUtils.sol\";\n\ncontract BidProcess{\n\n    using AddressUtils for address;\n\n    event CreateNewBid(uint256 _index, address _creator, address _asset, address _token);\n    event NewBid(uint256 _index, address _bidder, uint256 _amount);\n    event Claim(uint256 _bidIndex, address _claimer);\n\n    \n    enum Status { pending, active, finished }\n\n    struct BidInfo{\n        address assetAddress;\n        uint256 assetId;\n        address tokenAddress;\n        address creator;\n        uint256 startTime;\n        uint256 duration;\n        uint256 currentBidAmount;\n        address currentBidOwner;\n        uint256 bidCount;\n    }\n\n    BidInfo[] private bidings;\n\n    function createNewBid(address _assetAddress,\n                          uint256 _assetId,\n                          address _tokenAddress,\n                          uint256 _startPrice,\n                          uint256 _startTime,\n                          uint256 _duration) public returns(uint256){\n        require(_assetAddress.isContract());\n        ERC721 asset = ERC721(_assetAddress);\n        require(asset.ownerOf(_assetId)==msg.sender);\n        require(asset.getApproved(_assetId)==address(this));\n        require(_tokenAddress.isContract());\n\n        if(_startTime==0){\n            _startTime=block.timestamp;\n        }\n\n        BidInfo memory bidInfo = BidInfo({\n            assetAddress:_assetAddress,\n            assetId:_assetId,\n            tokenAddress:_tokenAddress,\n            creator:msg.sender,\n            startTime:_startTime,\n            duration:_duration,\n            currentBidAmount:_startPrice,\n            currentBidOwner:address(0),\n            bidCount:0\n        });\n\n        bidings.push(bidInfo);\n\n        uint256 index=bidings.length-1;\n\n        emit CreateNewBid(index,bidInfo.creator,bidInfo.assetAddress,bidInfo.tokenAddress);\n        \n        return index;\n     }\n\n    function bid(uint256 _bidIndex,\n                 uint256 _amount) public returns(bool){\n        \n        BidInfo storage bidInfo = bidings[_bidIndex];\n        require(bidInfo.creator!=address(0));\n        require(isActive(_bidIndex));\n\n        if(_amount>bidInfo.currentBidAmount){\n\n            ERC20 token=ERC20(bidInfo.tokenAddress);\n            require(token.transferFrom(msg.sender,address(this),_amount));\n            if(bidInfo.currentBidAmount!=0){\n                token.transfer(bidInfo.currentBidOwner,bidInfo.currentBidAmount);\n            }\n\n            bidInfo.currentBidAmount=_amount;\n            bidInfo.currentBidOwner=msg.sender;\n            bidInfo.bidCount=bidInfo.bidCount+1;\n\n            emit NewBid(_bidIndex,msg.sender,_amount);\n            return true;\n            }\n        \n        return false;\n        }\n\n    function isActive(uint256 _index) public view returns (bool) {\n        return getStatus(_index) == Status.active; \n        }\n\n    function isFinished(uint256 _index) public view returns (bool) { \n        return getStatus(_index) == Status.finished; \n        }\n\n    function getStatus(uint256 _index) public view returns (Status) {\n        BidInfo storage bidInfo = bidings[_index];\n        if (block.timestamp < bidInfo.startTime) {\n            return Status.pending;\n        } else if (block.timestamp < (bidInfo.startTime + (bidInfo.duration))) {\n            return Status.active;\n        } else {\n            return Status.finished;\n        }\n    }\n\n    function getWinner(uint256 _index) public view returns (address) {\n        require(isFinished(_index));\n        return bidings[_index].currentBidOwner;\n    }\n\n    function claimAsset(uint256 _bidIndex) public{\n        require(isFinished(_bidIndex));\n        BidInfo storage bidInfo = bidings[_bidIndex];\n\n        address winner = getWinner(_bidIndex);\n        require(winner==msg.sender);\n\n        ERC721 asset = ERC721(bidInfo.assetAddress);\n        asset.transferFrom(bidInfo.creator,winner,bidInfo.assetId);\n\n        emit Claim(_bidIndex,winner);\n    }\n\n    function claimTokens(uint256 _bidIndex) public{\n        require(isFinished(_bidIndex));\n        BidInfo storage bidInfo = bidings[_bidIndex];\n\n        require(bidInfo.creator==msg.sender);\n\n        ERC20 token = ERC20(bidInfo.tokenAddress);\n        require(token.transfer(bidInfo.creator,bidInfo.currentBidAmount));\n\n        emit Claim(_bidIndex,bidInfo.creator);\n    }\n\n    function getTotalBids() public view returns (uint256) { return bidings.length; }\n\n}",
  "sourcePath": "/Users/raviranjanchoudhary/Documents/GitHub/NFTMarketPlace/contracts/BidProcess.sol",
  "compiler": {
    "name": "solc",
    "version": "0.8.9+commit.e5eed63a.Emscripten.clang"
  },
  "schemaVersion": "3.4.3",
  "updatedAt": "2021-10-31T17:28:37.024Z",
  "networkType": "ethereum",
  "devdoc": {
    "kind": "dev",
    "methods": {},
    "version": 1
  },
  "userdoc": {
    "kind": "user",
    "methods": {},
    "version": 1
  }
}